{
    "contractName": "MyAudioNFT",
    "abi": [
        {
            "inputs": [],
            "stateMutability": "nonpayable",
            "type": "constructor"
        },
        {
            "anonymous": false,
            "inputs": [
                {
                    "indexed": true,
                    "internalType": "address",
                    "name": "owner",
                    "type": "address"
                },
                {
                    "indexed": true,
                    "internalType": "address",
                    "name": "approved",
                    "type": "address"
                },
                {
                    "indexed": true,
                    "internalType": "uint256",
                    "name": "tokenId",
                    "type": "uint256"
                }
            ],
            "name": "Approval",
            "type": "event"
        },
        {
            "anonymous": false,
            "inputs": [
                {
                    "indexed": true,
                    "internalType": "address",
                    "name": "owner",
                    "type": "address"
                },
                {
                    "indexed": true,
                    "internalType": "address",
                    "name": "operator",
                    "type": "address"
                },
                {
                    "indexed": false,
                    "internalType": "bool",
                    "name": "approved",
                    "type": "bool"
                }
            ],
            "name": "ApprovalForAll",
            "type": "event"
        },
        {
            "anonymous": false,
            "inputs": [
                {
                    "indexed": true,
                    "internalType": "address",
                    "name": "from",
                    "type": "address"
                },
                {
                    "indexed": true,
                    "internalType": "address",
                    "name": "to",
                    "type": "address"
                },
                {
                    "indexed": true,
                    "internalType": "uint256",
                    "name": "tokenId",
                    "type": "uint256"
                }
            ],
            "name": "Transfer",
            "type": "event"
        },
        {
            "inputs": [
                {
                    "internalType": "address",
                    "name": "to",
                    "type": "address"
                },
                {
                    "internalType": "uint256",
                    "name": "tokenId",
                    "type": "uint256"
                }
            ],
            "name": "approve",
            "outputs": [],
            "stateMutability": "nonpayable",
            "type": "function"
        },
        {
            "inputs": [
                {
                    "internalType": "address",
                    "name": "owner",
                    "type": "address"
                }
            ],
            "name": "balanceOf",
            "outputs": [
                {
                    "internalType": "uint256",
                    "name": "",
                    "type": "uint256"
                }
            ],
            "stateMutability": "view",
            "type": "function",
            "constant": true
        },
        {
            "inputs": [
                {
                    "internalType": "uint256",
                    "name": "tokenId",
                    "type": "uint256"
                }
            ],
            "name": "getApproved",
            "outputs": [
                {
                    "internalType": "address",
                    "name": "",
                    "type": "address"
                }
            ],
            "stateMutability": "view",
            "type": "function",
            "constant": true
        },
        {
            "inputs": [
                {
                    "internalType": "address",
                    "name": "owner",
                    "type": "address"
                },
                {
                    "internalType": "address",
                    "name": "operator",
                    "type": "address"
                }
            ],
            "name": "isApprovedForAll",
            "outputs": [
                {
                    "internalType": "bool",
                    "name": "",
                    "type": "bool"
                }
            ],
            "stateMutability": "view",
            "type": "function",
            "constant": true
        },
        {
            "inputs": [],
            "name": "name",
            "outputs": [
                {
                    "internalType": "string",
                    "name": "",
                    "type": "string"
                }
            ],
            "stateMutability": "view",
            "type": "function",
            "constant": true
        },
        {
            "inputs": [],
            "name": "nextTokenId",
            "outputs": [
                {
                    "internalType": "uint256",
                    "name": "",
                    "type": "uint256"
                }
            ],
            "stateMutability": "view",
            "type": "function",
            "constant": true
        },
        {
            "inputs": [
                {
                    "internalType": "uint256",
                    "name": "tokenId",
                    "type": "uint256"
                }
            ],
            "name": "ownerOf",
            "outputs": [
                {
                    "internalType": "address",
                    "name": "",
                    "type": "address"
                }
            ],
            "stateMutability": "view",
            "type": "function",
            "constant": true
        },
        {
            "inputs": [
                {
                    "internalType": "address",
                    "name": "from",
                    "type": "address"
                },
                {
                    "internalType": "address",
                    "name": "to",
                    "type": "address"
                },
                {
                    "internalType": "uint256",
                    "name": "tokenId",
                    "type": "uint256"
                }
            ],
            "name": "safeTransferFrom",
            "outputs": [],
            "stateMutability": "nonpayable",
            "type": "function"
        },
        {
            "inputs": [
                {
                    "internalType": "address",
                    "name": "from",
                    "type": "address"
                },
                {
                    "internalType": "address",
                    "name": "to",
                    "type": "address"
                },
                {
                    "internalType": "uint256",
                    "name": "tokenId",
                    "type": "uint256"
                },
                {
                    "internalType": "bytes",
                    "name": "data",
                    "type": "bytes"
                }
            ],
            "name": "safeTransferFrom",
            "outputs": [],
            "stateMutability": "nonpayable",
            "type": "function"
        },
        {
            "inputs": [
                {
                    "internalType": "address",
                    "name": "operator",
                    "type": "address"
                },
                {
                    "internalType": "bool",
                    "name": "approved",
                    "type": "bool"
                }
            ],
            "name": "setApprovalForAll",
            "outputs": [],
            "stateMutability": "nonpayable",
            "type": "function"
        },
        {
            "inputs": [
                {
                    "internalType": "bytes4",
                    "name": "interfaceId",
                    "type": "bytes4"
                }
            ],
            "name": "supportsInterface",
            "outputs": [
                {
                    "internalType": "bool",
                    "name": "",
                    "type": "bool"
                }
            ],
            "stateMutability": "view",
            "type": "function",
            "constant": true
        },
        {
            "inputs": [],
            "name": "symbol",
            "outputs": [
                {
                    "internalType": "string",
                    "name": "",
                    "type": "string"
                }
            ],
            "stateMutability": "view",
            "type": "function",
            "constant": true
        },
        {
            "inputs": [
                {
                    "internalType": "uint256",
                    "name": "index",
                    "type": "uint256"
                }
            ],
            "name": "tokenByIndex",
            "outputs": [
                {
                    "internalType": "uint256",
                    "name": "",
                    "type": "uint256"
                }
            ],
            "stateMutability": "view",
            "type": "function",
            "constant": true
        },
        {
            "inputs": [
                {
                    "internalType": "address",
                    "name": "owner",
                    "type": "address"
                },
                {
                    "internalType": "uint256",
                    "name": "index",
                    "type": "uint256"
                }
            ],
            "name": "tokenOfOwnerByIndex",
            "outputs": [
                {
                    "internalType": "uint256",
                    "name": "",
                    "type": "uint256"
                }
            ],
            "stateMutability": "view",
            "type": "function",
            "constant": true
        },
        {
            "inputs": [],
            "name": "totalSupply",
            "outputs": [
                {
                    "internalType": "uint256",
                    "name": "",
                    "type": "uint256"
                }
            ],
            "stateMutability": "view",
            "type": "function",
            "constant": true
        },
        {
            "inputs": [
                {
                    "internalType": "address",
                    "name": "from",
                    "type": "address"
                },
                {
                    "internalType": "address",
                    "name": "to",
                    "type": "address"
                },
                {
                    "internalType": "uint256",
                    "name": "tokenId",
                    "type": "uint256"
                }
            ],
            "name": "transferFrom",
            "outputs": [],
            "stateMutability": "nonpayable",
            "type": "function"
        },
        {
            "inputs": [
                {
                    "internalType": "string",
                    "name": "metadataCID",
                    "type": "string"
                },
                {
                    "internalType": "string",
                    "name": "audioCID",
                    "type": "string"
                }
            ],
            "name": "mintNFT",
            "outputs": [],
            "stateMutability": "nonpayable",
            "type": "function"
        },
        {
            "inputs": [
                {
                    "internalType": "uint256",
                    "name": "tokenId",
                    "type": "uint256"
                }
            ],
            "name": "getNFT",
            "outputs": [
                {
                    "components": [
                        {
                            "internalType": "uint256",
                            "name": "id",
                            "type": "uint256"
                        },
                        {
                            "internalType": "string",
                            "name": "metadataCID",
                            "type": "string"
                        },
                        {
                            "internalType": "string",
                            "name": "audioCID",
                            "type": "string"
                        },
                        {
                            "internalType": "address",
                            "name": "owner",
                            "type": "address"
                        }
                    ],
                    "internalType": "struct MyAudioNFT.NFT",
                    "name": "",
                    "type": "tuple"
                }
            ],
            "stateMutability": "view",
            "type": "function",
            "constant": true
        },
        {
            "inputs": [
                {
                    "internalType": "address",
                    "name": "owner",
                    "type": "address"
                }
            ],
            "name": "getNFTsByOwner",
            "outputs": [
                {
                    "components": [
                        {
                            "internalType": "uint256",
                            "name": "id",
                            "type": "uint256"
                        },
                        {
                            "internalType": "string",
                            "name": "metadataCID",
                            "type": "string"
                        },
                        {
                            "internalType": "string",
                            "name": "audioCID",
                            "type": "string"
                        },
                        {
                            "internalType": "address",
                            "name": "owner",
                            "type": "address"
                        }
                    ],
                    "internalType": "struct MyAudioNFT.NFT[]",
                    "name": "",
                    "type": "tuple[]"
                }
            ],
            "stateMutability": "view",
            "type": "function",
            "constant": true
        },
        {
            "inputs": [
                {
                    "internalType": "uint256",
                    "name": "tokenId",
                    "type": "uint256"
                }
            ],
            "name": "tokenURI",
            "outputs": [
                {
                    "internalType": "string",
                    "name": "",
                    "type": "string"
                }
            ],
            "stateMutability": "view",
            "type": "function",
            "constant": true
        },
        {
            "inputs": [
                {
                    "internalType": "uint256",
                    "name": "tokenId",
                    "type": "uint256"
                }
            ],
            "name": "tokenAudioUrl",
            "outputs": [
                {
                    "internalType": "string",
                    "name": "",
                    "type": "string"
                }
            ],
            "stateMutability": "view",
            "type": "function",
            "constant": true
        }
    ],
    "bytecode": "0x60806040526001600a553480156200001657600080fd5b506040518060400160405280600a81526020017f4d79417564696f4e4654000000000000000000000000000000000000000000008152506040518060400160405280600581526020017f415544494f000000000000000000000000000000000000000000000000000000815250816000908162000094919062000329565b508060019081620000a6919062000329565b50505062000410565b600081519050919050565b7f4e487b7100000000000000000000000000000000000000000000000000000000600052604160045260246000fd5b7f4e487b7100000000000000000000000000000000000000000000000000000000600052602260045260246000fd5b600060028204905060018216806200013157607f821691505b602082108103620001475762000146620000e9565b5b50919050565b60008190508160005260206000209050919050565b60006020601f8301049050919050565b600082821b905092915050565b600060088302620001b17fffffffffffffffffffffffffffffffffffffffffffffffffffffffffffffffff8262000172565b620001bd868362000172565b95508019841693508086168417925050509392505050565b6000819050919050565b6000819050919050565b60006200020a62000204620001fe84620001d5565b620001df565b620001d5565b9050919050565b6000819050919050565b6200022683620001e9565b6200023e620002358262000211565b8484546200017f565b825550505050565b600090565b6200025562000246565b620002628184846200021b565b505050565b5b818110156200028a576200027e6000826200024b565b60018101905062000268565b5050565b601f821115620002d957620002a3816200014d565b620002ae8462000162565b81016020851015620002be578190505b620002d6620002cd8562000162565b83018262000267565b50505b505050565b600082821c905092915050565b6000620002fe60001984600802620002de565b1980831691505092915050565b6000620003198383620002eb565b9150826002028217905092915050565b6200033482620000af565b67ffffffffffffffff81111562000350576200034f620000ba565b5b6200035c825462000118565b620003698282856200028e565b600060209050601f831160018114620003a157600084156200038c578287015190505b6200039885826200030b565b86555062000408565b601f198416620003b1866200014d565b60005b82811015620003db57848901518255600182019150602085019450602081019050620003b4565b86831015620003fb5784890151620003f7601f891682620002eb565b8355505b6001600288020188555050505b505050505050565b613a2880620004206000396000f3fe608060405234801561001057600080fd5b50600436106101375760003560e01c80636352211e116100b8578063b88d4fde1161007c578063b88d4fde14610374578063c87b56dd14610390578063caab41eb146103c0578063e2afe8b3146103f0578063e960554414610420578063e985e9c51461043c57610137565b80636352211e146102bc57806370a08231146102ec57806375794a3c1461031c57806395d89b411461033a578063a22cb4651461035857610137565b806323b872dd116100ff57806323b872dd146101f45780632f745c591461021057806342842e0e146102405780634f6ccce71461025c578063576f7ea71461028c57610137565b806301ffc9a71461013c57806306fdde031461016c578063081812fc1461018a578063095ea7b3146101ba57806318160ddd146101d6575b600080fd5b610156600480360381019061015191906123c5565b61046c565b604051610163919061240d565b60405180910390f35b6101746104e6565b60405161018191906124b8565b60405180910390f35b6101a4600480360381019061019f9190612510565b610578565b6040516101b1919061257e565b60405180910390f35b6101d460048036038101906101cf91906125c5565b6105be565b005b6101de6106d5565b6040516101eb9190612614565b60405180910390f35b61020e6004803603810190610209919061262f565b6106e2565b005b61022a600480360381019061022591906125c5565b610742565b6040516102379190612614565b60405180910390f35b61025a6004803603810190610255919061262f565b6107e7565b005b61027660048036038101906102719190612510565b610807565b6040516102839190612614565b60405180910390f35b6102a660048036038101906102a19190612510565b610878565b6040516102b39190612754565b60405180910390f35b6102d660048036038101906102d19190612510565b610a71565b6040516102e3919061257e565b60405180910390f35b61030660048036038101906103019190612776565b610af7565b6040516103139190612614565b60405180910390f35b610324610bae565b6040516103319190612614565b60405180910390f35b610342610bb4565b60405161034f91906124b8565b60405180910390f35b610372600480360381019061036d91906127cf565b610c46565b005b61038e60048036038101906103899190612944565b610c5c565b005b6103aa60048036038101906103a59190612510565b610cbe565b6040516103b791906124b8565b60405180910390f35b6103da60048036038101906103d59190612510565b610d44565b6040516103e791906124b8565b60405180910390f35b61040a60048036038101906104059190612776565b610dca565b6040516104179190612af3565b60405180910390f35b61043a60048036038101906104359190612b75565b611029565b005b61045660048036038101906104519190612bf6565b6111ab565b604051610463919061240d565b60405180910390f35b60007f780e9d63000000000000000000000000000000000000000000000000000000007bffffffffffffffffffffffffffffffffffffffffffffffffffffffff1916827bffffffffffffffffffffffffffffffffffffffffffffffffffffffff191614806104df57506104de8261123f565b5b9050919050565b6060600080546104f590612c65565b80601f016020809104026020016040519081016040528092919081815260200182805461052190612c65565b801561056e5780601f106105435761010080835404028352916020019161056e565b820191906000526020600020905b81548152906001019060200180831161055157829003601f168201915b5050505050905090565b600061058382611321565b6004600083815260200190815260200160002060009054906101000a900473ffffffffffffffffffffffffffffffffffffffff169050919050565b60006105c982610a71565b90508073ffffffffffffffffffffffffffffffffffffffff168373ffffffffffffffffffffffffffffffffffffffff1603610639576040517f08c379a000000000000000000000000000000000000000000000000000000000815260040161063090612d08565b60405180910390fd5b8073ffffffffffffffffffffffffffffffffffffffff1661065861136c565b73ffffffffffffffffffffffffffffffffffffffff16148061068757506106868161068161136c565b6111ab565b5b6106c6576040517f08c379a00000000000000000000000000000000000000000000000000000000081526004016106bd90612d9a565b60405180910390fd5b6106d08383611374565b505050565b6000600880549050905090565b6106f36106ed61136c565b8261142d565b610732576040517f08c379a000000000000000000000000000000000000000000000000000000000815260040161072990612e2c565b60405180910390fd5b61073d8383836114c2565b505050565b600061074d83610af7565b821061078e576040517f08c379a000000000000000000000000000000000000000000000000000000000815260040161078590612ebe565b60405180910390fd5b600660008473ffffffffffffffffffffffffffffffffffffffff1673ffffffffffffffffffffffffffffffffffffffff168152602001908152602001600020600083815260200190815260200160002054905092915050565b61080283838360405180602001604052806000815250610c5c565b505050565b60006108116106d5565b8210610852576040517f08c379a000000000000000000000000000000000000000000000000000000000815260040161084990612f50565b60405180910390fd5b6008828154811061086657610865612f70565b5b90600052602060002001549050919050565b61088061231b565b610889826117bb565b6108c8576040517f08c379a00000000000000000000000000000000000000000000000000000000081526004016108bf90613011565b60405180910390fd5b600b60008381526020019081526020016000206040518060800160405290816000820154815260200160018201805461090090612c65565b80601f016020809104026020016040519081016040528092919081815260200182805461092c90612c65565b80156109795780601f1061094e57610100808354040283529160200191610979565b820191906000526020600020905b81548152906001019060200180831161095c57829003601f168201915b5050505050815260200160028201805461099290612c65565b80601f01602080910402602001604051908101604052809291908181526020018280546109be90612c65565b8015610a0b5780601f106109e057610100808354040283529160200191610a0b565b820191906000526020600020905b8154815290600101906020018083116109ee57829003601f168201915b505050505081526020016003820160009054906101000a900473ffffffffffffffffffffffffffffffffffffffff1673ffffffffffffffffffffffffffffffffffffffff1673ffffffffffffffffffffffffffffffffffffffff16815250509050919050565b600080610a7d836117fc565b9050600073ffffffffffffffffffffffffffffffffffffffff168173ffffffffffffffffffffffffffffffffffffffff1603610aee576040517f08c379a0000000000000000000000000000000000000000000000000000000008152600401610ae59061307d565b60405180910390fd5b80915050919050565b60008073ffffffffffffffffffffffffffffffffffffffff168273ffffffffffffffffffffffffffffffffffffffff1603610b67576040517f08c379a0000000000000000000000000000000000000000000000000000000008152600401610b5e9061310f565b60405180910390fd5b600360008373ffffffffffffffffffffffffffffffffffffffff1673ffffffffffffffffffffffffffffffffffffffff168152602001908152602001600020549050919050565b600a5481565b606060018054610bc390612c65565b80601f0160208091040260200160405190810160405280929190818152602001828054610bef90612c65565b8015610c3c5780601f10610c1157610100808354040283529160200191610c3c565b820191906000526020600020905b815481529060010190602001808311610c1f57829003601f168201915b5050505050905090565b610c58610c5161136c565b8383611839565b5050565b610c6d610c6761136c565b8361142d565b610cac576040517f08c379a0000000000000000000000000000000000000000000000000000000008152600401610ca390612e2c565b60405180910390fd5b610cb8848484846119a5565b50505050565b6060610cc9826117bb565b610d08576040517f08c379a0000000000000000000000000000000000000000000000000000000008152600401610cff90613011565b60405180910390fd5b600b6000838152602001908152602001600020600101604051602001610d2e919061321e565b6040516020818303038152906040529050919050565b6060610d4f826117bb565b610d8e576040517f08c379a0000000000000000000000000000000000000000000000000000000008152600401610d8590613011565b60405180910390fd5b600b6000838152602001908152602001600020600201604051602001610db4919061321e565b6040516020818303038152906040529050919050565b60606000610dd783610af7565b905060008167ffffffffffffffff811115610df557610df4612819565b5b604051908082528060200260200182016040528015610e2e57816020015b610e1b61231b565b815260200190600190039081610e135790505b50905060005b8281101561101e576000610e488683610742565b9050600b600082815260200190815260200160002060405180608001604052908160008201548152602001600182018054610e8290612c65565b80601f0160208091040260200160405190810160405280929190818152602001828054610eae90612c65565b8015610efb5780601f10610ed057610100808354040283529160200191610efb565b820191906000526020600020905b815481529060010190602001808311610ede57829003601f168201915b50505050508152602001600282018054610f1490612c65565b80601f0160208091040260200160405190810160405280929190818152602001828054610f4090612c65565b8015610f8d5780601f10610f6257610100808354040283529160200191610f8d565b820191906000526020600020905b815481529060010190602001808311610f7057829003601f168201915b505050505081526020016003820160009054906101000a900473ffffffffffffffffffffffffffffffffffffffff1673ffffffffffffffffffffffffffffffffffffffff1673ffffffffffffffffffffffffffffffffffffffff1681525050838381518110610fff57610ffe612f70565b5b60200260200101819052505080806110169061326f565b915050610e34565b508092505050919050565b6000600a549050600a60008154809291906110439061326f565b91905055506110523382611a01565b604051806080016040528082815260200186868080601f016020809104026020016040519081016040528093929190818152602001838380828437600081840152601f19601f82011690508083019250505050505050815260200184848080601f016020809104026020016040519081016040528093929190818152602001838380828437600081840152601f19601f8201169050808301925050505050505081526020013373ffffffffffffffffffffffffffffffffffffffff16815250600b6000838152602001908152602001600020600082015181600001556020820151816001019081611143919061344e565b506040820151816002019081611159919061344e565b5060608201518160030160006101000a81548173ffffffffffffffffffffffffffffffffffffffff021916908373ffffffffffffffffffffffffffffffffffffffff1602179055509050505050505050565b6000600560008473ffffffffffffffffffffffffffffffffffffffff1673ffffffffffffffffffffffffffffffffffffffff16815260200190815260200160002060008373ffffffffffffffffffffffffffffffffffffffff1673ffffffffffffffffffffffffffffffffffffffff16815260200190815260200160002060009054906101000a900460ff16905092915050565b60007f80ac58cd000000000000000000000000000000000000000000000000000000007bffffffffffffffffffffffffffffffffffffffffffffffffffffffff1916827bffffffffffffffffffffffffffffffffffffffffffffffffffffffff1916148061130a57507f5b5e139f000000000000000000000000000000000000000000000000000000007bffffffffffffffffffffffffffffffffffffffffffffffffffffffff1916827bffffffffffffffffffffffffffffffffffffffffffffffffffffffff1916145b8061131a575061131982611a1f565b5b9050919050565b61132a816117bb565b611369576040517f08c379a00000000000000000000000000000000000000000000000000000000081526004016113609061307d565b60405180910390fd5b50565b600033905090565b816004600083815260200190815260200160002060006101000a81548173ffffffffffffffffffffffffffffffffffffffff021916908373ffffffffffffffffffffffffffffffffffffffff160217905550808273ffffffffffffffffffffffffffffffffffffffff166113e783610a71565b73ffffffffffffffffffffffffffffffffffffffff167f8c5be1e5ebec7d5bd14f71427d1e84f3dd0314c0f7b2291e5b200ac8c7c3b92560405160405180910390a45050565b60008061143983610a71565b90508073ffffffffffffffffffffffffffffffffffffffff168473ffffffffffffffffffffffffffffffffffffffff16148061147b575061147a81856111ab565b5b806114b957508373ffffffffffffffffffffffffffffffffffffffff166114a184610578565b73ffffffffffffffffffffffffffffffffffffffff16145b91505092915050565b8273ffffffffffffffffffffffffffffffffffffffff166114e282610a71565b73ffffffffffffffffffffffffffffffffffffffff1614611538576040517f08c379a000000000000000000000000000000000000000000000000000000000815260040161152f90613592565b60405180910390fd5b600073ffffffffffffffffffffffffffffffffffffffff168273ffffffffffffffffffffffffffffffffffffffff16036115a7576040517f08c379a000000000000000000000000000000000000000000000000000000000815260040161159e90613624565b60405180910390fd5b6115b48383836001611a89565b8273ffffffffffffffffffffffffffffffffffffffff166115d482610a71565b73ffffffffffffffffffffffffffffffffffffffff161461162a576040517f08c379a000000000000000000000000000000000000000000000000000000000815260040161162190613592565b60405180910390fd5b6004600082815260200190815260200160002060006101000a81549073ffffffffffffffffffffffffffffffffffffffff02191690556001600360008573ffffffffffffffffffffffffffffffffffffffff1673ffffffffffffffffffffffffffffffffffffffff168152602001908152602001600020600082825403925050819055506001600360008473ffffffffffffffffffffffffffffffffffffffff1673ffffffffffffffffffffffffffffffffffffffff16815260200190815260200160002060008282540192505081905550816002600083815260200190815260200160002060006101000a81548173ffffffffffffffffffffffffffffffffffffffff021916908373ffffffffffffffffffffffffffffffffffffffff160217905550808273ffffffffffffffffffffffffffffffffffffffff168473ffffffffffffffffffffffffffffffffffffffff167fddf252ad1be2c89b69c2b068fc378daa952ba7f163c4a11628f55a4df523b3ef60405160405180910390a46117b68383836001611be7565b505050565b60008073ffffffffffffffffffffffffffffffffffffffff166117dd836117fc565b73ffffffffffffffffffffffffffffffffffffffff1614159050919050565b60006002600083815260200190815260200160002060009054906101000a900473ffffffffffffffffffffffffffffffffffffffff169050919050565b8173ffffffffffffffffffffffffffffffffffffffff168373ffffffffffffffffffffffffffffffffffffffff16036118a7576040517f08c379a000000000000000000000000000000000000000000000000000000000815260040161189e90613690565b60405180910390fd5b80600560008573ffffffffffffffffffffffffffffffffffffffff1673ffffffffffffffffffffffffffffffffffffffff16815260200190815260200160002060008473ffffffffffffffffffffffffffffffffffffffff1673ffffffffffffffffffffffffffffffffffffffff16815260200190815260200160002060006101000a81548160ff0219169083151502179055508173ffffffffffffffffffffffffffffffffffffffff168373ffffffffffffffffffffffffffffffffffffffff167f17307eab39ab6107e8899845ad3d59bd9653f200f220920489ca2b5937696c3183604051611998919061240d565b60405180910390a3505050565b6119b08484846114c2565b6119bc84848484611bed565b6119fb576040517f08c379a00000000000000000000000000000000000000000000000000000000081526004016119f290613722565b60405180910390fd5b50505050565b611a1b828260405180602001604052806000815250611d74565b5050565b60007f01ffc9a7000000000000000000000000000000000000000000000000000000007bffffffffffffffffffffffffffffffffffffffffffffffffffffffff1916827bffffffffffffffffffffffffffffffffffffffffffffffffffffffff1916149050919050565b611a9584848484611dcf565b6001811115611ad9576040517f08c379a0000000000000000000000000000000000000000000000000000000008152600401611ad0906137b4565b60405180910390fd5b6000829050600073ffffffffffffffffffffffffffffffffffffffff168573ffffffffffffffffffffffffffffffffffffffff1603611b2057611b1b81611dd5565b611b5f565b8373ffffffffffffffffffffffffffffffffffffffff168573ffffffffffffffffffffffffffffffffffffffff1614611b5e57611b5d8582611e1e565b5b5b600073ffffffffffffffffffffffffffffffffffffffff168473ffffffffffffffffffffffffffffffffffffffff1603611ba157611b9c81611f8b565b611be0565b8473ffffffffffffffffffffffffffffffffffffffff168473ffffffffffffffffffffffffffffffffffffffff1614611bdf57611bde848261205c565b5b5b5050505050565b50505050565b6000611c0e8473ffffffffffffffffffffffffffffffffffffffff166120db565b15611d67578373ffffffffffffffffffffffffffffffffffffffff1663150b7a02611c3761136c565b8786866040518563ffffffff1660e01b8152600401611c599493929190613829565b6020604051808303816000875af1925050508015611c9557506040513d601f19601f82011682018060405250810190611c92919061388a565b60015b611d17573d8060008114611cc5576040519150601f19603f3d011682016040523d82523d6000602084013e611cca565b606091505b506000815103611d0f576040517f08c379a0000000000000000000000000000000000000000000000000000000008152600401611d0690613722565b60405180910390fd5b805181602001fd5b63150b7a0260e01b7bffffffffffffffffffffffffffffffffffffffffffffffffffffffff1916817bffffffffffffffffffffffffffffffffffffffffffffffffffffffff191614915050611d6c565b600190505b949350505050565b611d7e83836120fe565b611d8b6000848484611bed565b611dca576040517f08c379a0000000000000000000000000000000000000000000000000000000008152600401611dc190613722565b60405180910390fd5b505050565b50505050565b6008805490506009600083815260200190815260200160002081905550600881908060018154018082558091505060019003906000526020600020016000909190919091505550565b60006001611e2b84610af7565b611e3591906138b7565b9050600060076000848152602001908152602001600020549050818114611f1a576000600660008673ffffffffffffffffffffffffffffffffffffffff1673ffffffffffffffffffffffffffffffffffffffff168152602001908152602001600020600084815260200190815260200160002054905080600660008773ffffffffffffffffffffffffffffffffffffffff1673ffffffffffffffffffffffffffffffffffffffff168152602001908152602001600020600084815260200190815260200160002081905550816007600083815260200190815260200160002081905550505b6007600084815260200190815260200160002060009055600660008573ffffffffffffffffffffffffffffffffffffffff1673ffffffffffffffffffffffffffffffffffffffff16815260200190815260200160002060008381526020019081526020016000206000905550505050565b60006001600880549050611f9f91906138b7565b9050600060096000848152602001908152602001600020549050600060088381548110611fcf57611fce612f70565b5b906000526020600020015490508060088381548110611ff157611ff0612f70565b5b9060005260206000200181905550816009600083815260200190815260200160002081905550600960008581526020019081526020016000206000905560088054806120405761203f6138eb565b5b6001900381819060005260206000200160009055905550505050565b600061206783610af7565b905081600660008573ffffffffffffffffffffffffffffffffffffffff1673ffffffffffffffffffffffffffffffffffffffff168152602001908152602001600020600083815260200190815260200160002081905550806007600084815260200190815260200160002081905550505050565b6000808273ffffffffffffffffffffffffffffffffffffffff163b119050919050565b600073ffffffffffffffffffffffffffffffffffffffff168273ffffffffffffffffffffffffffffffffffffffff160361216d576040517f08c379a000000000000000000000000000000000000000000000000000000000815260040161216490613966565b60405180910390fd5b612176816117bb565b156121b6576040517f08c379a00000000000000000000000000000000000000000000000000000000081526004016121ad906139d2565b60405180910390fd5b6121c4600083836001611a89565b6121cd816117bb565b1561220d576040517f08c379a0000000000000000000000000000000000000000000000000000000008152600401612204906139d2565b60405180910390fd5b6001600360008473ffffffffffffffffffffffffffffffffffffffff1673ffffffffffffffffffffffffffffffffffffffff16815260200190815260200160002060008282540192505081905550816002600083815260200190815260200160002060006101000a81548173ffffffffffffffffffffffffffffffffffffffff021916908373ffffffffffffffffffffffffffffffffffffffff160217905550808273ffffffffffffffffffffffffffffffffffffffff16600073ffffffffffffffffffffffffffffffffffffffff167fddf252ad1be2c89b69c2b068fc378daa952ba7f163c4a11628f55a4df523b3ef60405160405180910390a4612317600083836001611be7565b5050565b6040518060800160405280600081526020016060815260200160608152602001600073ffffffffffffffffffffffffffffffffffffffff1681525090565b6000604051905090565b600080fd5b600080fd5b60007fffffffff0000000000000000000000000000000000000000000000000000000082169050919050565b6123a28161236d565b81146123ad57600080fd5b50565b6000813590506123bf81612399565b92915050565b6000602082840312156123db576123da612363565b5b60006123e9848285016123b0565b91505092915050565b60008115159050919050565b612407816123f2565b82525050565b600060208201905061242260008301846123fe565b92915050565b600081519050919050565b600082825260208201905092915050565b60005b83811015612462578082015181840152602081019050612447565b60008484015250505050565b6000601f19601f8301169050919050565b600061248a82612428565b6124948185612433565b93506124a4818560208601612444565b6124ad8161246e565b840191505092915050565b600060208201905081810360008301526124d2818461247f565b905092915050565b6000819050919050565b6124ed816124da565b81146124f857600080fd5b50565b60008135905061250a816124e4565b92915050565b60006020828403121561252657612525612363565b5b6000612534848285016124fb565b91505092915050565b600073ffffffffffffffffffffffffffffffffffffffff82169050919050565b60006125688261253d565b9050919050565b6125788161255d565b82525050565b6000602082019050612593600083018461256f565b92915050565b6125a28161255d565b81146125ad57600080fd5b50565b6000813590506125bf81612599565b92915050565b600080604083850312156125dc576125db612363565b5b60006125ea858286016125b0565b92505060206125fb858286016124fb565b9150509250929050565b61260e816124da565b82525050565b60006020820190506126296000830184612605565b92915050565b60008060006060848603121561264857612647612363565b5b6000612656868287016125b0565b9350506020612667868287016125b0565b9250506040612678868287016124fb565b9150509250925092565b61268b816124da565b82525050565b600082825260208201905092915050565b60006126ad82612428565b6126b78185612691565b93506126c7818560208601612444565b6126d08161246e565b840191505092915050565b6126e48161255d565b82525050565b60006080830160008301516127026000860182612682565b506020830151848203602086015261271a82826126a2565b9150506040830151848203604086015261273482826126a2565b915050606083015161274960608601826126db565b508091505092915050565b6000602082019050818103600083015261276e81846126ea565b905092915050565b60006020828403121561278c5761278b612363565b5b600061279a848285016125b0565b91505092915050565b6127ac816123f2565b81146127b757600080fd5b50565b6000813590506127c9816127a3565b92915050565b600080604083850312156127e6576127e5612363565b5b60006127f4858286016125b0565b9250506020612805858286016127ba565b9150509250929050565b600080fd5b600080fd5b7f4e487b7100000000000000000000000000000000000000000000000000000000600052604160045260246000fd5b6128518261246e565b810181811067ffffffffffffffff821117156128705761286f612819565b5b80604052505050565b6000612883612359565b905061288f8282612848565b919050565b600067ffffffffffffffff8211156128af576128ae612819565b5b6128b88261246e565b9050602081019050919050565b82818337600083830152505050565b60006128e76128e284612894565b612879565b90508281526020810184848401111561290357612902612814565b5b61290e8482856128c5565b509392505050565b600082601f83011261292b5761292a61280f565b5b813561293b8482602086016128d4565b91505092915050565b6000806000806080858703121561295e5761295d612363565b5b600061296c878288016125b0565b945050602061297d878288016125b0565b935050604061298e878288016124fb565b925050606085013567ffffffffffffffff8111156129af576129ae612368565b5b6129bb87828801612916565b91505092959194509250565b600081519050919050565b600082825260208201905092915050565b6000819050602082019050919050565b6000608083016000830151612a0b6000860182612682565b5060208301518482036020860152612a2382826126a2565b91505060408301518482036040860152612a3d82826126a2565b9150506060830151612a5260608601826126db565b508091505092915050565b6000612a6983836129f3565b905092915050565b6000602082019050919050565b6000612a89826129c7565b612a9381856129d2565b935083602082028501612aa5856129e3565b8060005b85811015612ae15784840389528151612ac28582612a5d565b9450612acd83612a71565b925060208a01995050600181019050612aa9565b50829750879550505050505092915050565b60006020820190508181036000830152612b0d8184612a7e565b905092915050565b600080fd5b600080fd5b60008083601f840112612b3557612b3461280f565b5b8235905067ffffffffffffffff811115612b5257612b51612b15565b5b602083019150836001820283011115612b6e57612b6d612b1a565b5b9250929050565b60008060008060408587031215612b8f57612b8e612363565b5b600085013567ffffffffffffffff811115612bad57612bac612368565b5b612bb987828801612b1f565b9450945050602085013567ffffffffffffffff811115612bdc57612bdb612368565b5b612be887828801612b1f565b925092505092959194509250565b60008060408385031215612c0d57612c0c612363565b5b6000612c1b858286016125b0565b9250506020612c2c858286016125b0565b9150509250929050565b7f4e487b7100000000000000000000000000000000000000000000000000000000600052602260045260246000fd5b60006002820490506001821680612c7d57607f821691505b602082108103612c9057612c8f612c36565b5b50919050565b7f4552433732313a20617070726f76616c20746f2063757272656e74206f776e6560008201527f7200000000000000000000000000000000000000000000000000000000000000602082015250565b6000612cf2602183612433565b9150612cfd82612c96565b604082019050919050565b60006020820190508181036000830152612d2181612ce5565b9050919050565b7f4552433732313a20617070726f76652063616c6c6572206973206e6f7420746f60008201527f6b656e206f776e6572206f7220617070726f76656420666f7220616c6c000000602082015250565b6000612d84603d83612433565b9150612d8f82612d28565b604082019050919050565b60006020820190508181036000830152612db381612d77565b9050919050565b7f4552433732313a2063616c6c6572206973206e6f7420746f6b656e206f776e6560008201527f72206f7220617070726f76656400000000000000000000000000000000000000602082015250565b6000612e16602d83612433565b9150612e2182612dba565b604082019050919050565b60006020820190508181036000830152612e4581612e09565b9050919050565b7f455243373231456e756d657261626c653a206f776e657220696e646578206f7560008201527f74206f6620626f756e6473000000000000000000000000000000000000000000602082015250565b6000612ea8602b83612433565b9150612eb382612e4c565b604082019050919050565b60006020820190508181036000830152612ed781612e9b565b9050919050565b7f455243373231456e756d657261626c653a20676c6f62616c20696e646578206f60008201527f7574206f6620626f756e64730000000000000000000000000000000000000000602082015250565b6000612f3a602c83612433565b9150612f4582612ede565b604082019050919050565b60006020820190508181036000830152612f6981612f2d565b9050919050565b7f4e487b7100000000000000000000000000000000000000000000000000000000600052603260045260246000fd5b7f4552433732313a20717565727920666f72206e6f6e6578697374656e7420746f60008201527f6b656e0000000000000000000000000000000000000000000000000000000000602082015250565b6000612ffb602383612433565b915061300682612f9f565b604082019050919050565b6000602082019050818103600083015261302a81612fee565b9050919050565b7f4552433732313a20696e76616c696420746f6b656e2049440000000000000000600082015250565b6000613067601883612433565b915061307282613031565b602082019050919050565b600060208201905081810360008301526130968161305a565b9050919050565b7f4552433732313a2061646472657373207a65726f206973206e6f74206120766160008201527f6c6964206f776e65720000000000000000000000000000000000000000000000602082015250565b60006130f9602983612433565b91506131048261309d565b604082019050919050565b60006020820190508181036000830152613128816130ec565b9050919050565b600081905092915050565b7f697066733a2f2f00000000000000000000000000000000000000000000000000600082015250565b600061317060078361312f565b915061317b8261313a565b600782019050919050565b60008190508160005260206000209050919050565b600081546131a881612c65565b6131b2818661312f565b945060018216600081146131cd57600181146131e257613215565b60ff1983168652811515820286019350613215565b6131eb85613186565b60005b8381101561320d578154818901526001820191506020810190506131ee565b838801955050505b50505092915050565b600061322982613163565b9150613235828461319b565b915081905092915050565b7f4e487b7100000000000000000000000000000000000000000000000000000000600052601160045260246000fd5b600061327a826124da565b91507fffffffffffffffffffffffffffffffffffffffffffffffffffffffffffffffff82036132ac576132ab613240565b5b600182019050919050565b60006020601f8301049050919050565b600082821b905092915050565b6000600883026133047fffffffffffffffffffffffffffffffffffffffffffffffffffffffffffffffff826132c7565b61330e86836132c7565b95508019841693508086168417925050509392505050565b6000819050919050565b600061334b613346613341846124da565b613326565b6124da565b9050919050565b6000819050919050565b61336583613330565b61337961337182613352565b8484546132d4565b825550505050565b600090565b61338e613381565b61339981848461335c565b505050565b5b818110156133bd576133b2600082613386565b60018101905061339f565b5050565b601f821115613402576133d381613186565b6133dc846132b7565b810160208510156133eb578190505b6133ff6133f7856132b7565b83018261339e565b50505b505050565b600082821c905092915050565b600061342560001984600802613407565b1980831691505092915050565b600061343e8383613414565b9150826002028217905092915050565b61345782612428565b67ffffffffffffffff8111156134705761346f612819565b5b61347a8254612c65565b6134858282856133c1565b600060209050601f8311600181146134b857600084156134a6578287015190505b6134b08582613432565b865550613518565b601f1984166134c686613186565b60005b828110156134ee578489015182556001820191506020850194506020810190506134c9565b8683101561350b5784890151613507601f891682613414565b8355505b6001600288020188555050505b505050505050565b7f4552433732313a207472616e736665722066726f6d20696e636f72726563742060008201527f6f776e6572000000000000000000000000000000000000000000000000000000602082015250565b600061357c602583612433565b915061358782613520565b604082019050919050565b600060208201905081810360008301526135ab8161356f565b9050919050565b7f4552433732313a207472616e7366657220746f20746865207a65726f2061646460008201527f7265737300000000000000000000000000000000000000000000000000000000602082015250565b600061360e602483612433565b9150613619826135b2565b604082019050919050565b6000602082019050818103600083015261363d81613601565b9050919050565b7f4552433732313a20617070726f766520746f2063616c6c657200000000000000600082015250565b600061367a601983612433565b915061368582613644565b602082019050919050565b600060208201905081810360008301526136a98161366d565b9050919050565b7f4552433732313a207472616e7366657220746f206e6f6e20455243373231526560008201527f63656976657220696d706c656d656e7465720000000000000000000000000000602082015250565b600061370c603283612433565b9150613717826136b0565b604082019050919050565b6000602082019050818103600083015261373b816136ff565b9050919050565b7f455243373231456e756d657261626c653a20636f6e736563757469766520747260008201527f616e7366657273206e6f7420737570706f727465640000000000000000000000602082015250565b600061379e603583612433565b91506137a982613742565b604082019050919050565b600060208201905081810360008301526137cd81613791565b9050919050565b600081519050919050565b600082825260208201905092915050565b60006137fb826137d4565b61380581856137df565b9350613815818560208601612444565b61381e8161246e565b840191505092915050565b600060808201905061383e600083018761256f565b61384b602083018661256f565b6138586040830185612605565b818103606083015261386a81846137f0565b905095945050505050565b60008151905061388481612399565b92915050565b6000602082840312156138a05761389f612363565b5b60006138ae84828501613875565b91505092915050565b60006138c2826124da565b91506138cd836124da565b92508282039050818111156138e5576138e4613240565b5b92915050565b7f4e487b7100000000000000000000000000000000000000000000000000000000600052603160045260246000fd5b7f4552433732313a206d696e7420746f20746865207a65726f2061646472657373600082015250565b6000613950602083612433565b915061395b8261391a565b602082019050919050565b6000602082019050818103600083015261397f81613943565b9050919050565b7f4552433732313a20746f6b656e20616c7265616479206d696e74656400000000600082015250565b60006139bc601c83612433565b91506139c782613986565b602082019050919050565b600060208201905081810360008301526139eb816139af565b905091905056fea264697066735822122068878f384b8db20ff3586acb2352625a4f1352adee4a375694cad20bee0c5ab064736f6c63430008150033",
    "immutableReferences": {},
    "source": "// SPDX-License-Identifier: MIT\npragma solidity ^0.8.0;\n\nimport \"@openzeppelin/contracts/token/ERC721/extensions/ERC721Enumerable.sol\";\n\ncontract MyAudioNFT is ERC721Enumerable {\n    // NFT   (CID )\n    struct NFT {\n        uint256 id;\n        string metadataCID;\n        string audioCID;\n        address owner;\n    }\n\n    //    ID ( )\n    uint256 public nextTokenId = 1;\n\n    //  ID  NFT  \n    mapping(uint256 => NFT) private _nfts;\n\n    /**\n     * @dev     (name) (symbol) \n     */\n    constructor() ERC721(\"MyAudioNFT\", \"AUDIO\") {}\n\n    /**\n     * @dev  Audio NFT \n     * @param metadataCID IPFS  CID (: bafybeib...)\n     * @param audioCID IPFS   CID (: bafybeiaudio...)\n     */\n    function mintNFT(\n        string calldata metadataCID,\n        string calldata audioCID\n    ) external {\n        uint256 tokenId = nextTokenId;\n        nextTokenId++;\n\n        //   \n        _safeMint(msg.sender, tokenId);\n\n        // NFT  CID \n        _nfts[tokenId] = NFT(tokenId, metadataCID, audioCID, msg.sender);\n    }\n\n    /**\n     * @dev  Audio NFT  \n     */\n    function getNFT(\n        uint256 tokenId\n    ) external view returns (NFT memory) {\n        require(_exists(tokenId), \"ERC721: query for nonexistent token\");\n        return _nfts[tokenId];\n    }\n\n    /**\n     * @dev   Audio NFT  \n     */\n    function getNFTsByOwner(\n        address owner\n    ) external view returns (NFT[] memory) {\n        uint256 count = balanceOf(owner);\n        NFT[] memory result = new NFT[](count);\n        for (uint256 i = 0; i < count; i++) {\n            uint256 tokenId = tokenOfOwnerByIndex(owner, i);\n            result[i] = _nfts[tokenId];\n        }\n        return result;\n    }\n\n    /**\n     * @dev ERC-721   URI  (prefix  )\n     */\n    function tokenURI(\n        uint256 tokenId\n    ) public view override returns (string memory) {\n        require(_exists(tokenId), \"ERC721: query for nonexistent token\");\n        return string(abi.encodePacked(\"ipfs://\", _nfts[tokenId].metadataCID));\n    }\n\n    /**\n     * @dev   URI  (prefix  )\n     */\n    function tokenAudioUrl(\n        uint256 tokenId\n    ) external view returns (string memory) {\n        require(_exists(tokenId), \"ERC721: query for nonexistent token\");\n        return string(abi.encodePacked(\"ipfs://\", _nfts[tokenId].audioCID));\n    }\n}\n",
    "sourcePath": "/home/ubuntu/go/src/NFT-Project/truffle-project/contracts/MyAudioNFT.sol",
    "compiler": {
        "name": "solc",
        "version": "0.8.21+commit.d9974bed.Emscripten.clang"
    },
    "schemaVersion": "3.4.16",
    "updatedAt": "2025-07-07T07:01:59.718Z",
    "networkType": "ethereum",
    "devdoc": {
        "events": {
            "Approval(address,address,uint256)": {
                "details": "Emitted when `owner` enables `approved` to manage the `tokenId` token."
            },
            "ApprovalForAll(address,address,bool)": {
                "details": "Emitted when `owner` enables or disables (`approved`) `operator` to manage all of its assets."
            },
            "Transfer(address,address,uint256)": {
                "details": "Emitted when `tokenId` token is transferred from `from` to `to`."
            }
        },
        "kind": "dev",
        "methods": {
            "approve(address,uint256)": {
                "details": "See {IERC721-approve}."
            },
            "balanceOf(address)": {
                "details": "See {IERC721-balanceOf}."
            },
            "constructor": {
                "details": "    (name) (symbol) "
            },
            "getApproved(uint256)": {
                "details": "See {IERC721-getApproved}."
            },
            "getNFT(uint256)": {
                "details": " Audio NFT  "
            },
            "getNFTsByOwner(address)": {
                "details": "  Audio NFT  "
            },
            "isApprovedForAll(address,address)": {
                "details": "See {IERC721-isApprovedForAll}."
            },
            "mintNFT(string,string)": {
                "details": " Audio NFT ",
                "params": {
                    "audioCID": "IPFS   CID (: bafybeiaudio...)",
                    "metadataCID": "IPFS  CID (: bafybeib...)"
                }
            },
            "name()": {
                "details": "See {IERC721Metadata-name}."
            },
            "ownerOf(uint256)": {
                "details": "See {IERC721-ownerOf}."
            },
            "safeTransferFrom(address,address,uint256)": {
                "details": "See {IERC721-safeTransferFrom}."
            },
            "safeTransferFrom(address,address,uint256,bytes)": {
                "details": "See {IERC721-safeTransferFrom}."
            },
            "setApprovalForAll(address,bool)": {
                "details": "See {IERC721-setApprovalForAll}."
            },
            "supportsInterface(bytes4)": {
                "details": "See {IERC165-supportsInterface}."
            },
            "symbol()": {
                "details": "See {IERC721Metadata-symbol}."
            },
            "tokenAudioUrl(uint256)": {
                "details": "  URI  (prefix  )"
            },
            "tokenByIndex(uint256)": {
                "details": "See {IERC721Enumerable-tokenByIndex}."
            },
            "tokenOfOwnerByIndex(address,uint256)": {
                "details": "See {IERC721Enumerable-tokenOfOwnerByIndex}."
            },
            "tokenURI(uint256)": {
                "details": "ERC-721   URI  (prefix  )"
            },
            "totalSupply()": {
                "details": "See {IERC721Enumerable-totalSupply}."
            },
            "transferFrom(address,address,uint256)": {
                "details": "See {IERC721-transferFrom}."
            }
        },
        "version": 1
    },
    "userdoc": {
        "kind": "user",
        "methods": {},
        "version": 1
    }
}