{
  "contractName": "Migrations",
  "abi": [
    {
      "inputs": [],
      "stateMutability": "nonpayable",
      "type": "constructor"
    },
    {
      "inputs": [],
      "name": "last_completed_migration",
      "outputs": [
        {
          "internalType": "uint256",
          "name": "",
          "type": "uint256"
        }
      ],
      "stateMutability": "view",
      "type": "function"
    },
    {
      "inputs": [],
      "name": "owner",
      "outputs": [
        {
          "internalType": "address",
          "name": "",
          "type": "address"
        }
      ],
      "stateMutability": "view",
      "type": "function"
    },
    {
      "inputs": [
        {
          "internalType": "uint256",
          "name": "completed",
          "type": "uint256"
        }
      ],
      "name": "setCompleted",
      "outputs": [],
      "stateMutability": "nonpayable",
      "type": "function"
    },
    {
      "inputs": [
        {
          "internalType": "address",
          "name": "new_address",
          "type": "address"
        }
      ],
      "name": "upgrade",
      "outputs": [],
      "stateMutability": "nonpayable",
      "type": "function"
    }
  ],
  "bytecode": "0x6080604052348015600e575f5ffd5b50335f5f6101000a81548173ffffffffffffffffffffffffffffffffffffffff021916908373ffffffffffffffffffffffffffffffffffffffff16021790555061048d8061005b5f395ff3fe608060405234801561000f575f5ffd5b506004361061004a575f3560e01c80630900f0101461004e578063445df0ac1461006a5780638da5cb5b14610088578063fdacd576146100a6575b5f5ffd5b610068600480360381019061006391906102e0565b6100c2565b005b6100726101c0565b60405161007f9190610323565b60405180910390f35b6100906101c6565b60405161009d919061034b565b60405180910390f35b6100c060048036038101906100bb919061038e565b6101ea565b005b5f5f9054906101000a900473ffffffffffffffffffffffffffffffffffffffff1673ffffffffffffffffffffffffffffffffffffffff163373ffffffffffffffffffffffffffffffffffffffff1614610150576040517f08c379a000000000000000000000000000000000000000000000000000000000815260040161014790610439565b60405180910390fd5b5f8190508073ffffffffffffffffffffffffffffffffffffffff1663fdacd5766001546040518263ffffffff1660e01b815260040161018f9190610323565b5f604051808303815f87803b1580156101a6575f5ffd5b505af11580156101b8573d5f5f3e3d5ffd5b505050505050565b60015481565b5f5f9054906101000a900473ffffffffffffffffffffffffffffffffffffffff1681565b5f5f9054906101000a900473ffffffffffffffffffffffffffffffffffffffff1673ffffffffffffffffffffffffffffffffffffffff163373ffffffffffffffffffffffffffffffffffffffff1614610278576040517f08c379a000000000000000000000000000000000000000000000000000000000815260040161026f90610439565b60405180910390fd5b8060018190555050565b5f5ffd5b5f73ffffffffffffffffffffffffffffffffffffffff82169050919050565b5f6102af82610286565b9050919050565b6102bf816102a5565b81146102c9575f5ffd5b50565b5f813590506102da816102b6565b92915050565b5f602082840312156102f5576102f4610282565b5b5f610302848285016102cc565b91505092915050565b5f819050919050565b61031d8161030b565b82525050565b5f6020820190506103365f830184610314565b92915050565b610345816102a5565b82525050565b5f60208201905061035e5f83018461033c565b92915050565b61036d8161030b565b8114610377575f5ffd5b50565b5f8135905061038881610364565b92915050565b5f602082840312156103a3576103a2610282565b5b5f6103b08482850161037a565b91505092915050565b5f82825260208201905092915050565b7f4f6e6c7920746865206f776e65722063616e2063616c6c20746869732066756e5f8201527f6374696f6e2e0000000000000000000000000000000000000000000000000000602082015250565b5f6104236026836103b9565b915061042e826103c9565b604082019050919050565b5f6020820190508181035f83015261045081610417565b905091905056fea264697066735822122017a51b1c24c9bae08fbc95e8b9df2140ddfc01dfc4c6e0457c987222393b65f264736f6c634300081e0033",
  "immutableReferences": {},
  "source": "// SPDX-License-Identifier: MIT\npragma solidity ^0.8.20;\n\ncontract Migrations {\n    address public owner;\n    uint public last_completed_migration;\n\n    modifier restricted() {\n        require(msg.sender == owner, \"Only the owner can call this function.\");\n        _;  // function body will be inserted here\n    }\n\n    constructor() {\n        owner = msg.sender;  //  owner \n    }\n\n    function setCompleted(uint completed) public restricted {\n        last_completed_migration = completed;\n    }\n\n    function upgrade(address new_address) public restricted {\n        Migrations upgraded = Migrations(new_address);\n        upgraded.setCompleted(last_completed_migration);\n    }\n}\n",
  "sourcePath": "/home/ubuntu/go/src/Voice_NFT_Trading/src/backend/node/nft/NFT/contracts/Migrations.sol",
  "compiler": {
    "name": "solc",
    "version": "0.8.30+commit.73712a01.Emscripten.clang"
  },
  "schemaVersion": "3.4.16",
  "updatedAt": "2025-07-03T07:20:31.231Z",
  "devdoc": {
    "kind": "dev",
    "methods": {},
    "version": 1
  },
  "userdoc": {
    "kind": "user",
    "methods": {},
    "version": 1
  }
}