{
  "contractName": "MyAudioNFT",
  "abi": [
    {
      "inputs": [],
      "stateMutability": "nonpayable",
      "type": "constructor"
    },
    {
      "anonymous": false,
      "inputs": [
        {
          "indexed": true,
          "internalType": "address",
          "name": "owner",
          "type": "address"
        },
        {
          "indexed": true,
          "internalType": "address",
          "name": "approved",
          "type": "address"
        },
        {
          "indexed": true,
          "internalType": "uint256",
          "name": "tokenId",
          "type": "uint256"
        }
      ],
      "name": "Approval",
      "type": "event"
    },
    {
      "anonymous": false,
      "inputs": [
        {
          "indexed": true,
          "internalType": "address",
          "name": "owner",
          "type": "address"
        },
        {
          "indexed": true,
          "internalType": "address",
          "name": "operator",
          "type": "address"
        },
        {
          "indexed": false,
          "internalType": "bool",
          "name": "approved",
          "type": "bool"
        }
      ],
      "name": "ApprovalForAll",
      "type": "event"
    },
    {
      "anonymous": false,
      "inputs": [
        {
          "indexed": true,
          "internalType": "address",
          "name": "to",
          "type": "address"
        },
        {
          "indexed": true,
          "internalType": "uint256",
          "name": "tokenId",
          "type": "uint256"
        }
      ],
      "name": "Minted",
      "type": "event"
    },
    {
      "anonymous": false,
      "inputs": [
        {
          "indexed": true,
          "internalType": "address",
          "name": "from",
          "type": "address"
        },
        {
          "indexed": true,
          "internalType": "address",
          "name": "to",
          "type": "address"
        },
        {
          "indexed": true,
          "internalType": "uint256",
          "name": "tokenId",
          "type": "uint256"
        }
      ],
      "name": "Transfer",
      "type": "event"
    },
    {
      "inputs": [
        {
          "internalType": "address",
          "name": "to",
          "type": "address"
        },
        {
          "internalType": "uint256",
          "name": "tokenId",
          "type": "uint256"
        }
      ],
      "name": "approve",
      "outputs": [],
      "stateMutability": "nonpayable",
      "type": "function"
    },
    {
      "inputs": [
        {
          "internalType": "address",
          "name": "owner",
          "type": "address"
        }
      ],
      "name": "balanceOf",
      "outputs": [
        {
          "internalType": "uint256",
          "name": "",
          "type": "uint256"
        }
      ],
      "stateMutability": "view",
      "type": "function",
      "constant": true
    },
    {
      "inputs": [
        {
          "internalType": "uint256",
          "name": "tokenId",
          "type": "uint256"
        }
      ],
      "name": "getApproved",
      "outputs": [
        {
          "internalType": "address",
          "name": "",
          "type": "address"
        }
      ],
      "stateMutability": "view",
      "type": "function",
      "constant": true
    },
    {
      "inputs": [
        {
          "internalType": "address",
          "name": "owner",
          "type": "address"
        },
        {
          "internalType": "address",
          "name": "operator",
          "type": "address"
        }
      ],
      "name": "isApprovedForAll",
      "outputs": [
        {
          "internalType": "bool",
          "name": "",
          "type": "bool"
        }
      ],
      "stateMutability": "view",
      "type": "function",
      "constant": true
    },
    {
      "inputs": [],
      "name": "name",
      "outputs": [
        {
          "internalType": "string",
          "name": "",
          "type": "string"
        }
      ],
      "stateMutability": "view",
      "type": "function",
      "constant": true
    },
    {
      "inputs": [],
      "name": "nextTokenId",
      "outputs": [
        {
          "internalType": "uint256",
          "name": "",
          "type": "uint256"
        }
      ],
      "stateMutability": "view",
      "type": "function",
      "constant": true
    },
    {
      "inputs": [
        {
          "internalType": "uint256",
          "name": "tokenId",
          "type": "uint256"
        }
      ],
      "name": "ownerOf",
      "outputs": [
        {
          "internalType": "address",
          "name": "",
          "type": "address"
        }
      ],
      "stateMutability": "view",
      "type": "function",
      "constant": true
    },
    {
      "inputs": [
        {
          "internalType": "address",
          "name": "from",
          "type": "address"
        },
        {
          "internalType": "address",
          "name": "to",
          "type": "address"
        },
        {
          "internalType": "uint256",
          "name": "tokenId",
          "type": "uint256"
        }
      ],
      "name": "safeTransferFrom",
      "outputs": [],
      "stateMutability": "nonpayable",
      "type": "function"
    },
    {
      "inputs": [
        {
          "internalType": "address",
          "name": "from",
          "type": "address"
        },
        {
          "internalType": "address",
          "name": "to",
          "type": "address"
        },
        {
          "internalType": "uint256",
          "name": "tokenId",
          "type": "uint256"
        },
        {
          "internalType": "bytes",
          "name": "data",
          "type": "bytes"
        }
      ],
      "name": "safeTransferFrom",
      "outputs": [],
      "stateMutability": "nonpayable",
      "type": "function"
    },
    {
      "inputs": [
        {
          "internalType": "address",
          "name": "operator",
          "type": "address"
        },
        {
          "internalType": "bool",
          "name": "approved",
          "type": "bool"
        }
      ],
      "name": "setApprovalForAll",
      "outputs": [],
      "stateMutability": "nonpayable",
      "type": "function"
    },
    {
      "inputs": [
        {
          "internalType": "bytes4",
          "name": "interfaceId",
          "type": "bytes4"
        }
      ],
      "name": "supportsInterface",
      "outputs": [
        {
          "internalType": "bool",
          "name": "",
          "type": "bool"
        }
      ],
      "stateMutability": "view",
      "type": "function",
      "constant": true
    },
    {
      "inputs": [],
      "name": "symbol",
      "outputs": [
        {
          "internalType": "string",
          "name": "",
          "type": "string"
        }
      ],
      "stateMutability": "view",
      "type": "function",
      "constant": true
    },
    {
      "inputs": [
        {
          "internalType": "uint256",
          "name": "index",
          "type": "uint256"
        }
      ],
      "name": "tokenByIndex",
      "outputs": [
        {
          "internalType": "uint256",
          "name": "",
          "type": "uint256"
        }
      ],
      "stateMutability": "view",
      "type": "function",
      "constant": true
    },
    {
      "inputs": [
        {
          "internalType": "address",
          "name": "owner",
          "type": "address"
        },
        {
          "internalType": "uint256",
          "name": "index",
          "type": "uint256"
        }
      ],
      "name": "tokenOfOwnerByIndex",
      "outputs": [
        {
          "internalType": "uint256",
          "name": "",
          "type": "uint256"
        }
      ],
      "stateMutability": "view",
      "type": "function",
      "constant": true
    },
    {
      "inputs": [],
      "name": "totalSupply",
      "outputs": [
        {
          "internalType": "uint256",
          "name": "",
          "type": "uint256"
        }
      ],
      "stateMutability": "view",
      "type": "function",
      "constant": true
    },
    {
      "inputs": [
        {
          "internalType": "address",
          "name": "from",
          "type": "address"
        },
        {
          "internalType": "address",
          "name": "to",
          "type": "address"
        },
        {
          "internalType": "uint256",
          "name": "tokenId",
          "type": "uint256"
        }
      ],
      "name": "transferFrom",
      "outputs": [],
      "stateMutability": "nonpayable",
      "type": "function"
    },
    {
      "inputs": [
        {
          "internalType": "string",
          "name": "metadataCID",
          "type": "string"
        },
        {
          "internalType": "string",
          "name": "audioCID",
          "type": "string"
        }
      ],
      "name": "mintNFT",
      "outputs": [],
      "stateMutability": "nonpayable",
      "type": "function"
    },
    {
      "inputs": [
        {
          "internalType": "uint256",
          "name": "tokenId",
          "type": "uint256"
        }
      ],
      "name": "getNFT",
      "outputs": [
        {
          "components": [
            {
              "internalType": "uint256",
              "name": "id",
              "type": "uint256"
            },
            {
              "internalType": "string",
              "name": "metadataCID",
              "type": "string"
            },
            {
              "internalType": "string",
              "name": "audioCID",
              "type": "string"
            },
            {
              "internalType": "address",
              "name": "owner",
              "type": "address"
            }
          ],
          "internalType": "struct MyAudioNFT.NFT",
          "name": "",
          "type": "tuple"
        }
      ],
      "stateMutability": "view",
      "type": "function",
      "constant": true
    },
    {
      "inputs": [
        {
          "internalType": "address",
          "name": "owner",
          "type": "address"
        }
      ],
      "name": "getNFTsByOwner",
      "outputs": [
        {
          "components": [
            {
              "internalType": "uint256",
              "name": "id",
              "type": "uint256"
            },
            {
              "internalType": "string",
              "name": "metadataCID",
              "type": "string"
            },
            {
              "internalType": "string",
              "name": "audioCID",
              "type": "string"
            },
            {
              "internalType": "address",
              "name": "owner",
              "type": "address"
            }
          ],
          "internalType": "struct MyAudioNFT.NFT[]",
          "name": "",
          "type": "tuple[]"
        }
      ],
      "stateMutability": "view",
      "type": "function",
      "constant": true
    },
    {
      "inputs": [
        {
          "internalType": "uint256",
          "name": "tokenId",
          "type": "uint256"
        }
      ],
      "name": "tokenURI",
      "outputs": [
        {
          "internalType": "string",
          "name": "",
          "type": "string"
        }
      ],
      "stateMutability": "view",
      "type": "function",
      "constant": true
    },
    {
      "inputs": [
        {
          "internalType": "uint256",
          "name": "tokenId",
          "type": "uint256"
        }
      ],
      "name": "tokenAudioUrl",
      "outputs": [
        {
          "internalType": "string",
          "name": "",
          "type": "string"
        }
      ],
      "stateMutability": "view",
      "type": "function",
      "constant": true
    }
  ],
  "bytecode": "0x60806040526001600a553480156200001657600080fd5b506040518060400160405280600a81526020017f4d79417564696f4e4654000000000000000000000000000000000000000000008152506040518060400160405280600581526020017f415544494f000000000000000000000000000000000000000000000000000000815250816000908162000094919062000329565b508060019081620000a6919062000329565b50505062000410565b600081519050919050565b7f4e487b7100000000000000000000000000000000000000000000000000000000600052604160045260246000fd5b7f4e487b7100000000000000000000000000000000000000000000000000000000600052602260045260246000fd5b600060028204905060018216806200013157607f821691505b602082108103620001475762000146620000e9565b5b50919050565b60008190508160005260206000209050919050565b60006020601f8301049050919050565b600082821b905092915050565b600060088302620001b17fffffffffffffffffffffffffffffffffffffffffffffffffffffffffffffffff8262000172565b620001bd868362000172565b95508019841693508086168417925050509392505050565b6000819050919050565b6000819050919050565b60006200020a62000204620001fe84620001d5565b620001df565b620001d5565b9050919050565b6000819050919050565b6200022683620001e9565b6200023e620002358262000211565b8484546200017f565b825550505050565b600090565b6200025562000246565b620002628184846200021b565b505050565b5b818110156200028a576200027e6000826200024b565b60018101905062000268565b5050565b601f821115620002d957620002a3816200014d565b620002ae8462000162565b81016020851015620002be578190505b620002d6620002cd8562000162565b83018262000267565b50505b505050565b600082821c905092915050565b6000620002fe60001984600802620002de565b1980831691505092915050565b6000620003198383620002eb565b9150826002028217905092915050565b6200033482620000af565b67ffffffffffffffff81111562000350576200034f620000ba565b5b6200035c825462000118565b620003698282856200028e565b600060209050601f831160018114620003a157600084156200038c578287015190505b6200039885826200030b565b86555062000408565b601f198416620003b1866200014d565b60005b82811015620003db57848901518255600182019150602085019450602081019050620003b4565b86831015620003fb5784890151620003f7601f891682620002eb565b8355505b6001600288020188555050505b505050505050565b613a6c80620004206000396000f3fe608060405234801561001057600080fd5b50600436106101375760003560e01c80636352211e116100b8578063b88d4fde1161007c578063b88d4fde14610374578063c87b56dd14610390578063caab41eb146103c0578063e2afe8b3146103f0578063e960554414610420578063e985e9c51461043c57610137565b80636352211e146102bc57806370a08231146102ec57806375794a3c1461031c57806395d89b411461033a578063a22cb4651461035857610137565b806323b872dd116100ff57806323b872dd146101f45780632f745c591461021057806342842e0e146102405780634f6ccce71461025c578063576f7ea71461028c57610137565b806301ffc9a71461013c57806306fdde031461016c578063081812fc1461018a578063095ea7b3146101ba57806318160ddd146101d6575b600080fd5b61015660048036038101906101519190612409565b61046c565b6040516101639190612451565b60405180910390f35b6101746104e6565b60405161018191906124fc565b60405180910390f35b6101a4600480360381019061019f9190612554565b610578565b6040516101b191906125c2565b60405180910390f35b6101d460048036038101906101cf9190612609565b6105be565b005b6101de6106d5565b6040516101eb9190612658565b60405180910390f35b61020e60048036038101906102099190612673565b6106e2565b005b61022a60048036038101906102259190612609565b610742565b6040516102379190612658565b60405180910390f35b61025a60048036038101906102559190612673565b6107e7565b005b61027660048036038101906102719190612554565b610807565b6040516102839190612658565b60405180910390f35b6102a660048036038101906102a19190612554565b610878565b6040516102b39190612798565b60405180910390f35b6102d660048036038101906102d19190612554565b610a71565b6040516102e391906125c2565b60405180910390f35b610306600480360381019061030191906127ba565b610af7565b6040516103139190612658565b60405180910390f35b610324610bae565b6040516103319190612658565b60405180910390f35b610342610bb4565b60405161034f91906124fc565b60405180910390f35b610372600480360381019061036d9190612813565b610c46565b005b61038e60048036038101906103899190612988565b610c5c565b005b6103aa60048036038101906103a59190612554565b610cbe565b6040516103b791906124fc565b60405180910390f35b6103da60048036038101906103d59190612554565b610d44565b6040516103e791906124fc565b60405180910390f35b61040a600480360381019061040591906127ba565b610dca565b6040516104179190612b37565b60405180910390f35b61043a60048036038101906104359190612bb9565b611029565b005b61045660048036038101906104519190612c3a565b6111ef565b6040516104639190612451565b60405180910390f35b60007f780e9d63000000000000000000000000000000000000000000000000000000007bffffffffffffffffffffffffffffffffffffffffffffffffffffffff1916827bffffffffffffffffffffffffffffffffffffffffffffffffffffffff191614806104df57506104de82611283565b5b9050919050565b6060600080546104f590612ca9565b80601f016020809104026020016040519081016040528092919081815260200182805461052190612ca9565b801561056e5780601f106105435761010080835404028352916020019161056e565b820191906000526020600020905b81548152906001019060200180831161055157829003601f168201915b5050505050905090565b600061058382611365565b6004600083815260200190815260200160002060009054906101000a900473ffffffffffffffffffffffffffffffffffffffff169050919050565b60006105c982610a71565b90508073ffffffffffffffffffffffffffffffffffffffff168373ffffffffffffffffffffffffffffffffffffffff1603610639576040517f08c379a000000000000000000000000000000000000000000000000000000000815260040161063090612d4c565b60405180910390fd5b8073ffffffffffffffffffffffffffffffffffffffff166106586113b0565b73ffffffffffffffffffffffffffffffffffffffff1614806106875750610686816106816113b0565b6111ef565b5b6106c6576040517f08c379a00000000000000000000000000000000000000000000000000000000081526004016106bd90612dde565b60405180910390fd5b6106d083836113b8565b505050565b6000600880549050905090565b6106f36106ed6113b0565b82611471565b610732576040517f08c379a000000000000000000000000000000000000000000000000000000000815260040161072990612e70565b60405180910390fd5b61073d838383611506565b505050565b600061074d83610af7565b821061078e576040517f08c379a000000000000000000000000000000000000000000000000000000000815260040161078590612f02565b60405180910390fd5b600660008473ffffffffffffffffffffffffffffffffffffffff1673ffffffffffffffffffffffffffffffffffffffff168152602001908152602001600020600083815260200190815260200160002054905092915050565b61080283838360405180602001604052806000815250610c5c565b505050565b60006108116106d5565b8210610852576040517f08c379a000000000000000000000000000000000000000000000000000000000815260040161084990612f94565b60405180910390fd5b6008828154811061086657610865612fb4565b5b90600052602060002001549050919050565b61088061235f565b610889826117ff565b6108c8576040517f08c379a00000000000000000000000000000000000000000000000000000000081526004016108bf90613055565b60405180910390fd5b600b60008381526020019081526020016000206040518060800160405290816000820154815260200160018201805461090090612ca9565b80601f016020809104026020016040519081016040528092919081815260200182805461092c90612ca9565b80156109795780601f1061094e57610100808354040283529160200191610979565b820191906000526020600020905b81548152906001019060200180831161095c57829003601f168201915b5050505050815260200160028201805461099290612ca9565b80601f01602080910402602001604051908101604052809291908181526020018280546109be90612ca9565b8015610a0b5780601f106109e057610100808354040283529160200191610a0b565b820191906000526020600020905b8154815290600101906020018083116109ee57829003601f168201915b505050505081526020016003820160009054906101000a900473ffffffffffffffffffffffffffffffffffffffff1673ffffffffffffffffffffffffffffffffffffffff1673ffffffffffffffffffffffffffffffffffffffff16815250509050919050565b600080610a7d83611840565b9050600073ffffffffffffffffffffffffffffffffffffffff168173ffffffffffffffffffffffffffffffffffffffff1603610aee576040517f08c379a0000000000000000000000000000000000000000000000000000000008152600401610ae5906130c1565b60405180910390fd5b80915050919050565b60008073ffffffffffffffffffffffffffffffffffffffff168273ffffffffffffffffffffffffffffffffffffffff1603610b67576040517f08c379a0000000000000000000000000000000000000000000000000000000008152600401610b5e90613153565b60405180910390fd5b600360008373ffffffffffffffffffffffffffffffffffffffff1673ffffffffffffffffffffffffffffffffffffffff168152602001908152602001600020549050919050565b600a5481565b606060018054610bc390612ca9565b80601f0160208091040260200160405190810160405280929190818152602001828054610bef90612ca9565b8015610c3c5780601f10610c1157610100808354040283529160200191610c3c565b820191906000526020600020905b815481529060010190602001808311610c1f57829003601f168201915b5050505050905090565b610c58610c516113b0565b838361187d565b5050565b610c6d610c676113b0565b83611471565b610cac576040517f08c379a0000000000000000000000000000000000000000000000000000000008152600401610ca390612e70565b60405180910390fd5b610cb8848484846119e9565b50505050565b6060610cc9826117ff565b610d08576040517f08c379a0000000000000000000000000000000000000000000000000000000008152600401610cff90613055565b60405180910390fd5b600b6000838152602001908152602001600020600101604051602001610d2e9190613262565b6040516020818303038152906040529050919050565b6060610d4f826117ff565b610d8e576040517f08c379a0000000000000000000000000000000000000000000000000000000008152600401610d8590613055565b60405180910390fd5b600b6000838152602001908152602001600020600201604051602001610db49190613262565b6040516020818303038152906040529050919050565b60606000610dd783610af7565b905060008167ffffffffffffffff811115610df557610df461285d565b5b604051908082528060200260200182016040528015610e2e57816020015b610e1b61235f565b815260200190600190039081610e135790505b50905060005b8281101561101e576000610e488683610742565b9050600b600082815260200190815260200160002060405180608001604052908160008201548152602001600182018054610e8290612ca9565b80601f0160208091040260200160405190810160405280929190818152602001828054610eae90612ca9565b8015610efb5780601f10610ed057610100808354040283529160200191610efb565b820191906000526020600020905b815481529060010190602001808311610ede57829003601f168201915b50505050508152602001600282018054610f1490612ca9565b80601f0160208091040260200160405190810160405280929190818152602001828054610f4090612ca9565b8015610f8d5780601f10610f6257610100808354040283529160200191610f8d565b820191906000526020600020905b815481529060010190602001808311610f7057829003601f168201915b505050505081526020016003820160009054906101000a900473ffffffffffffffffffffffffffffffffffffffff1673ffffffffffffffffffffffffffffffffffffffff1673ffffffffffffffffffffffffffffffffffffffff1681525050838381518110610fff57610ffe612fb4565b5b6020026020010181905250508080611016906132b3565b915050610e34565b508092505050919050565b6000600a549050600a6000815480929190611043906132b3565b91905055506110523382611a45565b604051806080016040528082815260200186868080601f016020809104026020016040519081016040528093929190818152602001838380828437600081840152601f19601f82011690508083019250505050505050815260200184848080601f016020809104026020016040519081016040528093929190818152602001838380828437600081840152601f19601f8201169050808301925050505050505081526020013373ffffffffffffffffffffffffffffffffffffffff16815250600b60008381526020019081526020016000206000820151816000015560208201518160010190816111439190613492565b5060408201518160020190816111599190613492565b5060608201518160030160006101000a81548173ffffffffffffffffffffffffffffffffffffffff021916908373ffffffffffffffffffffffffffffffffffffffff160217905550905050803373ffffffffffffffffffffffffffffffffffffffff167f30385c845b448a36257a6a1716e6ad2e1bc2cbe333cde1e69fe849ad6511adfe60405160405180910390a35050505050565b6000600560008473ffffffffffffffffffffffffffffffffffffffff1673ffffffffffffffffffffffffffffffffffffffff16815260200190815260200160002060008373ffffffffffffffffffffffffffffffffffffffff1673ffffffffffffffffffffffffffffffffffffffff16815260200190815260200160002060009054906101000a900460ff16905092915050565b60007f80ac58cd000000000000000000000000000000000000000000000000000000007bffffffffffffffffffffffffffffffffffffffffffffffffffffffff1916827bffffffffffffffffffffffffffffffffffffffffffffffffffffffff1916148061134e57507f5b5e139f000000000000000000000000000000000000000000000000000000007bffffffffffffffffffffffffffffffffffffffffffffffffffffffff1916827bffffffffffffffffffffffffffffffffffffffffffffffffffffffff1916145b8061135e575061135d82611a63565b5b9050919050565b61136e816117ff565b6113ad576040517f08c379a00000000000000000000000000000000000000000000000000000000081526004016113a4906130c1565b60405180910390fd5b50565b600033905090565b816004600083815260200190815260200160002060006101000a81548173ffffffffffffffffffffffffffffffffffffffff021916908373ffffffffffffffffffffffffffffffffffffffff160217905550808273ffffffffffffffffffffffffffffffffffffffff1661142b83610a71565b73ffffffffffffffffffffffffffffffffffffffff167f8c5be1e5ebec7d5bd14f71427d1e84f3dd0314c0f7b2291e5b200ac8c7c3b92560405160405180910390a45050565b60008061147d83610a71565b90508073ffffffffffffffffffffffffffffffffffffffff168473ffffffffffffffffffffffffffffffffffffffff1614806114bf57506114be81856111ef565b5b806114fd57508373ffffffffffffffffffffffffffffffffffffffff166114e584610578565b73ffffffffffffffffffffffffffffffffffffffff16145b91505092915050565b8273ffffffffffffffffffffffffffffffffffffffff1661152682610a71565b73ffffffffffffffffffffffffffffffffffffffff161461157c576040517f08c379a0000000000000000000000000000000000000000000000000000000008152600401611573906135d6565b60405180910390fd5b600073ffffffffffffffffffffffffffffffffffffffff168273ffffffffffffffffffffffffffffffffffffffff16036115eb576040517f08c379a00000000000000000000000000000000000000000000000000000000081526004016115e290613668565b60405180910390fd5b6115f88383836001611acd565b8273ffffffffffffffffffffffffffffffffffffffff1661161882610a71565b73ffffffffffffffffffffffffffffffffffffffff161461166e576040517f08c379a0000000000000000000000000000000000000000000000000000000008152600401611665906135d6565b60405180910390fd5b6004600082815260200190815260200160002060006101000a81549073ffffffffffffffffffffffffffffffffffffffff02191690556001600360008573ffffffffffffffffffffffffffffffffffffffff1673ffffffffffffffffffffffffffffffffffffffff168152602001908152602001600020600082825403925050819055506001600360008473ffffffffffffffffffffffffffffffffffffffff1673ffffffffffffffffffffffffffffffffffffffff16815260200190815260200160002060008282540192505081905550816002600083815260200190815260200160002060006101000a81548173ffffffffffffffffffffffffffffffffffffffff021916908373ffffffffffffffffffffffffffffffffffffffff160217905550808273ffffffffffffffffffffffffffffffffffffffff168473ffffffffffffffffffffffffffffffffffffffff167fddf252ad1be2c89b69c2b068fc378daa952ba7f163c4a11628f55a4df523b3ef60405160405180910390a46117fa8383836001611c2b565b505050565b60008073ffffffffffffffffffffffffffffffffffffffff1661182183611840565b73ffffffffffffffffffffffffffffffffffffffff1614159050919050565b60006002600083815260200190815260200160002060009054906101000a900473ffffffffffffffffffffffffffffffffffffffff169050919050565b8173ffffffffffffffffffffffffffffffffffffffff168373ffffffffffffffffffffffffffffffffffffffff16036118eb576040517f08c379a00000000000000000000000000000000000000000000000000000000081526004016118e2906136d4565b60405180910390fd5b80600560008573ffffffffffffffffffffffffffffffffffffffff1673ffffffffffffffffffffffffffffffffffffffff16815260200190815260200160002060008473ffffffffffffffffffffffffffffffffffffffff1673ffffffffffffffffffffffffffffffffffffffff16815260200190815260200160002060006101000a81548160ff0219169083151502179055508173ffffffffffffffffffffffffffffffffffffffff168373ffffffffffffffffffffffffffffffffffffffff167f17307eab39ab6107e8899845ad3d59bd9653f200f220920489ca2b5937696c31836040516119dc9190612451565b60405180910390a3505050565b6119f4848484611506565b611a0084848484611c31565b611a3f576040517f08c379a0000000000000000000000000000000000000000000000000000000008152600401611a3690613766565b60405180910390fd5b50505050565b611a5f828260405180602001604052806000815250611db8565b5050565b60007f01ffc9a7000000000000000000000000000000000000000000000000000000007bffffffffffffffffffffffffffffffffffffffffffffffffffffffff1916827bffffffffffffffffffffffffffffffffffffffffffffffffffffffff1916149050919050565b611ad984848484611e13565b6001811115611b1d576040517f08c379a0000000000000000000000000000000000000000000000000000000008152600401611b14906137f8565b60405180910390fd5b6000829050600073ffffffffffffffffffffffffffffffffffffffff168573ffffffffffffffffffffffffffffffffffffffff1603611b6457611b5f81611e19565b611ba3565b8373ffffffffffffffffffffffffffffffffffffffff168573ffffffffffffffffffffffffffffffffffffffff1614611ba257611ba18582611e62565b5b5b600073ffffffffffffffffffffffffffffffffffffffff168473ffffffffffffffffffffffffffffffffffffffff1603611be557611be081611fcf565b611c24565b8473ffffffffffffffffffffffffffffffffffffffff168473ffffffffffffffffffffffffffffffffffffffff1614611c2357611c2284826120a0565b5b5b5050505050565b50505050565b6000611c528473ffffffffffffffffffffffffffffffffffffffff1661211f565b15611dab578373ffffffffffffffffffffffffffffffffffffffff1663150b7a02611c7b6113b0565b8786866040518563ffffffff1660e01b8152600401611c9d949392919061386d565b6020604051808303816000875af1925050508015611cd957506040513d601f19601f82011682018060405250810190611cd691906138ce565b60015b611d5b573d8060008114611d09576040519150601f19603f3d011682016040523d82523d6000602084013e611d0e565b606091505b506000815103611d53576040517f08c379a0000000000000000000000000000000000000000000000000000000008152600401611d4a90613766565b60405180910390fd5b805181602001fd5b63150b7a0260e01b7bffffffffffffffffffffffffffffffffffffffffffffffffffffffff1916817bffffffffffffffffffffffffffffffffffffffffffffffffffffffff191614915050611db0565b600190505b949350505050565b611dc28383612142565b611dcf6000848484611c31565b611e0e576040517f08c379a0000000000000000000000000000000000000000000000000000000008152600401611e0590613766565b60405180910390fd5b505050565b50505050565b6008805490506009600083815260200190815260200160002081905550600881908060018154018082558091505060019003906000526020600020016000909190919091505550565b60006001611e6f84610af7565b611e7991906138fb565b9050600060076000848152602001908152602001600020549050818114611f5e576000600660008673ffffffffffffffffffffffffffffffffffffffff1673ffffffffffffffffffffffffffffffffffffffff168152602001908152602001600020600084815260200190815260200160002054905080600660008773ffffffffffffffffffffffffffffffffffffffff1673ffffffffffffffffffffffffffffffffffffffff168152602001908152602001600020600084815260200190815260200160002081905550816007600083815260200190815260200160002081905550505b6007600084815260200190815260200160002060009055600660008573ffffffffffffffffffffffffffffffffffffffff1673ffffffffffffffffffffffffffffffffffffffff16815260200190815260200160002060008381526020019081526020016000206000905550505050565b60006001600880549050611fe391906138fb565b905060006009600084815260200190815260200160002054905060006008838154811061201357612012612fb4565b5b90600052602060002001549050806008838154811061203557612034612fb4565b5b9060005260206000200181905550816009600083815260200190815260200160002081905550600960008581526020019081526020016000206000905560088054806120845761208361392f565b5b6001900381819060005260206000200160009055905550505050565b60006120ab83610af7565b905081600660008573ffffffffffffffffffffffffffffffffffffffff1673ffffffffffffffffffffffffffffffffffffffff168152602001908152602001600020600083815260200190815260200160002081905550806007600084815260200190815260200160002081905550505050565b6000808273ffffffffffffffffffffffffffffffffffffffff163b119050919050565b600073ffffffffffffffffffffffffffffffffffffffff168273ffffffffffffffffffffffffffffffffffffffff16036121b1576040517f08c379a00000000000000000000000000000000000000000000000000000000081526004016121a8906139aa565b60405180910390fd5b6121ba816117ff565b156121fa576040517f08c379a00000000000000000000000000000000000000000000000000000000081526004016121f190613a16565b60405180910390fd5b612208600083836001611acd565b612211816117ff565b15612251576040517f08c379a000000000000000000000000000000000000000000000000000000000815260040161224890613a16565b60405180910390fd5b6001600360008473ffffffffffffffffffffffffffffffffffffffff1673ffffffffffffffffffffffffffffffffffffffff16815260200190815260200160002060008282540192505081905550816002600083815260200190815260200160002060006101000a81548173ffffffffffffffffffffffffffffffffffffffff021916908373ffffffffffffffffffffffffffffffffffffffff160217905550808273ffffffffffffffffffffffffffffffffffffffff16600073ffffffffffffffffffffffffffffffffffffffff167fddf252ad1be2c89b69c2b068fc378daa952ba7f163c4a11628f55a4df523b3ef60405160405180910390a461235b600083836001611c2b565b5050565b6040518060800160405280600081526020016060815260200160608152602001600073ffffffffffffffffffffffffffffffffffffffff1681525090565b6000604051905090565b600080fd5b600080fd5b60007fffffffff0000000000000000000000000000000000000000000000000000000082169050919050565b6123e6816123b1565b81146123f157600080fd5b50565b600081359050612403816123dd565b92915050565b60006020828403121561241f5761241e6123a7565b5b600061242d848285016123f4565b91505092915050565b60008115159050919050565b61244b81612436565b82525050565b60006020820190506124666000830184612442565b92915050565b600081519050919050565b600082825260208201905092915050565b60005b838110156124a657808201518184015260208101905061248b565b60008484015250505050565b6000601f19601f8301169050919050565b60006124ce8261246c565b6124d88185612477565b93506124e8818560208601612488565b6124f1816124b2565b840191505092915050565b6000602082019050818103600083015261251681846124c3565b905092915050565b6000819050919050565b6125318161251e565b811461253c57600080fd5b50565b60008135905061254e81612528565b92915050565b60006020828403121561256a576125696123a7565b5b60006125788482850161253f565b91505092915050565b600073ffffffffffffffffffffffffffffffffffffffff82169050919050565b60006125ac82612581565b9050919050565b6125bc816125a1565b82525050565b60006020820190506125d760008301846125b3565b92915050565b6125e6816125a1565b81146125f157600080fd5b50565b600081359050612603816125dd565b92915050565b600080604083850312156126205761261f6123a7565b5b600061262e858286016125f4565b925050602061263f8582860161253f565b9150509250929050565b6126528161251e565b82525050565b600060208201905061266d6000830184612649565b92915050565b60008060006060848603121561268c5761268b6123a7565b5b600061269a868287016125f4565b93505060206126ab868287016125f4565b92505060406126bc8682870161253f565b9150509250925092565b6126cf8161251e565b82525050565b600082825260208201905092915050565b60006126f18261246c565b6126fb81856126d5565b935061270b818560208601612488565b612714816124b2565b840191505092915050565b612728816125a1565b82525050565b600060808301600083015161274660008601826126c6565b506020830151848203602086015261275e82826126e6565b9150506040830151848203604086015261277882826126e6565b915050606083015161278d606086018261271f565b508091505092915050565b600060208201905081810360008301526127b2818461272e565b905092915050565b6000602082840312156127d0576127cf6123a7565b5b60006127de848285016125f4565b91505092915050565b6127f081612436565b81146127fb57600080fd5b50565b60008135905061280d816127e7565b92915050565b6000806040838503121561282a576128296123a7565b5b6000612838858286016125f4565b9250506020612849858286016127fe565b9150509250929050565b600080fd5b600080fd5b7f4e487b7100000000000000000000000000000000000000000000000000000000600052604160045260246000fd5b612895826124b2565b810181811067ffffffffffffffff821117156128b4576128b361285d565b5b80604052505050565b60006128c761239d565b90506128d3828261288c565b919050565b600067ffffffffffffffff8211156128f3576128f261285d565b5b6128fc826124b2565b9050602081019050919050565b82818337600083830152505050565b600061292b612926846128d8565b6128bd565b90508281526020810184848401111561294757612946612858565b5b612952848285612909565b509392505050565b600082601f83011261296f5761296e612853565b5b813561297f848260208601612918565b91505092915050565b600080600080608085870312156129a2576129a16123a7565b5b60006129b0878288016125f4565b94505060206129c1878288016125f4565b93505060406129d28782880161253f565b925050606085013567ffffffffffffffff8111156129f3576129f26123ac565b5b6129ff8782880161295a565b91505092959194509250565b600081519050919050565b600082825260208201905092915050565b6000819050602082019050919050565b6000608083016000830151612a4f60008601826126c6565b5060208301518482036020860152612a6782826126e6565b91505060408301518482036040860152612a8182826126e6565b9150506060830151612a96606086018261271f565b508091505092915050565b6000612aad8383612a37565b905092915050565b6000602082019050919050565b6000612acd82612a0b565b612ad78185612a16565b935083602082028501612ae985612a27565b8060005b85811015612b255784840389528151612b068582612aa1565b9450612b1183612ab5565b925060208a01995050600181019050612aed565b50829750879550505050505092915050565b60006020820190508181036000830152612b518184612ac2565b905092915050565b600080fd5b600080fd5b60008083601f840112612b7957612b78612853565b5b8235905067ffffffffffffffff811115612b9657612b95612b59565b5b602083019150836001820283011115612bb257612bb1612b5e565b5b9250929050565b60008060008060408587031215612bd357612bd26123a7565b5b600085013567ffffffffffffffff811115612bf157612bf06123ac565b5b612bfd87828801612b63565b9450945050602085013567ffffffffffffffff811115612c2057612c1f6123ac565b5b612c2c87828801612b63565b925092505092959194509250565b60008060408385031215612c5157612c506123a7565b5b6000612c5f858286016125f4565b9250506020612c70858286016125f4565b9150509250929050565b7f4e487b7100000000000000000000000000000000000000000000000000000000600052602260045260246000fd5b60006002820490506001821680612cc157607f821691505b602082108103612cd457612cd3612c7a565b5b50919050565b7f4552433732313a20617070726f76616c20746f2063757272656e74206f776e6560008201527f7200000000000000000000000000000000000000000000000000000000000000602082015250565b6000612d36602183612477565b9150612d4182612cda565b604082019050919050565b60006020820190508181036000830152612d6581612d29565b9050919050565b7f4552433732313a20617070726f76652063616c6c6572206973206e6f7420746f60008201527f6b656e206f776e6572206f7220617070726f76656420666f7220616c6c000000602082015250565b6000612dc8603d83612477565b9150612dd382612d6c565b604082019050919050565b60006020820190508181036000830152612df781612dbb565b9050919050565b7f4552433732313a2063616c6c6572206973206e6f7420746f6b656e206f776e6560008201527f72206f7220617070726f76656400000000000000000000000000000000000000602082015250565b6000612e5a602d83612477565b9150612e6582612dfe565b604082019050919050565b60006020820190508181036000830152612e8981612e4d565b9050919050565b7f455243373231456e756d657261626c653a206f776e657220696e646578206f7560008201527f74206f6620626f756e6473000000000000000000000000000000000000000000602082015250565b6000612eec602b83612477565b9150612ef782612e90565b604082019050919050565b60006020820190508181036000830152612f1b81612edf565b9050919050565b7f455243373231456e756d657261626c653a20676c6f62616c20696e646578206f60008201527f7574206f6620626f756e64730000000000000000000000000000000000000000602082015250565b6000612f7e602c83612477565b9150612f8982612f22565b604082019050919050565b60006020820190508181036000830152612fad81612f71565b9050919050565b7f4e487b7100000000000000000000000000000000000000000000000000000000600052603260045260246000fd5b7f4552433732313a20717565727920666f72206e6f6e6578697374656e7420746f60008201527f6b656e0000000000000000000000000000000000000000000000000000000000602082015250565b600061303f602383612477565b915061304a82612fe3565b604082019050919050565b6000602082019050818103600083015261306e81613032565b9050919050565b7f4552433732313a20696e76616c696420746f6b656e2049440000000000000000600082015250565b60006130ab601883612477565b91506130b682613075565b602082019050919050565b600060208201905081810360008301526130da8161309e565b9050919050565b7f4552433732313a2061646472657373207a65726f206973206e6f74206120766160008201527f6c6964206f776e65720000000000000000000000000000000000000000000000602082015250565b600061313d602983612477565b9150613148826130e1565b604082019050919050565b6000602082019050818103600083015261316c81613130565b9050919050565b600081905092915050565b7f697066733a2f2f00000000000000000000000000000000000000000000000000600082015250565b60006131b4600783613173565b91506131bf8261317e565b600782019050919050565b60008190508160005260206000209050919050565b600081546131ec81612ca9565b6131f68186613173565b94506001821660008114613211576001811461322657613259565b60ff1983168652811515820286019350613259565b61322f856131ca565b60005b8381101561325157815481890152600182019150602081019050613232565b838801955050505b50505092915050565b600061326d826131a7565b915061327982846131df565b915081905092915050565b7f4e487b7100000000000000000000000000000000000000000000000000000000600052601160045260246000fd5b60006132be8261251e565b91507fffffffffffffffffffffffffffffffffffffffffffffffffffffffffffffffff82036132f0576132ef613284565b5b600182019050919050565b60006020601f8301049050919050565b600082821b905092915050565b6000600883026133487fffffffffffffffffffffffffffffffffffffffffffffffffffffffffffffffff8261330b565b613352868361330b565b95508019841693508086168417925050509392505050565b6000819050919050565b600061338f61338a6133858461251e565b61336a565b61251e565b9050919050565b6000819050919050565b6133a983613374565b6133bd6133b582613396565b848454613318565b825550505050565b600090565b6133d26133c5565b6133dd8184846133a0565b505050565b5b81811015613401576133f66000826133ca565b6001810190506133e3565b5050565b601f82111561344657613417816131ca565b613420846132fb565b8101602085101561342f578190505b61344361343b856132fb565b8301826133e2565b50505b505050565b600082821c905092915050565b60006134696000198460080261344b565b1980831691505092915050565b60006134828383613458565b9150826002028217905092915050565b61349b8261246c565b67ffffffffffffffff8111156134b4576134b361285d565b5b6134be8254612ca9565b6134c9828285613405565b600060209050601f8311600181146134fc57600084156134ea578287015190505b6134f48582613476565b86555061355c565b601f19841661350a866131ca565b60005b828110156135325784890151825560018201915060208501945060208101905061350d565b8683101561354f578489015161354b601f891682613458565b8355505b6001600288020188555050505b505050505050565b7f4552433732313a207472616e736665722066726f6d20696e636f72726563742060008201527f6f776e6572000000000000000000000000000000000000000000000000000000602082015250565b60006135c0602583612477565b91506135cb82613564565b604082019050919050565b600060208201905081810360008301526135ef816135b3565b9050919050565b7f4552433732313a207472616e7366657220746f20746865207a65726f2061646460008201527f7265737300000000000000000000000000000000000000000000000000000000602082015250565b6000613652602483612477565b915061365d826135f6565b604082019050919050565b6000602082019050818103600083015261368181613645565b9050919050565b7f4552433732313a20617070726f766520746f2063616c6c657200000000000000600082015250565b60006136be601983612477565b91506136c982613688565b602082019050919050565b600060208201905081810360008301526136ed816136b1565b9050919050565b7f4552433732313a207472616e7366657220746f206e6f6e20455243373231526560008201527f63656976657220696d706c656d656e7465720000000000000000000000000000602082015250565b6000613750603283612477565b915061375b826136f4565b604082019050919050565b6000602082019050818103600083015261377f81613743565b9050919050565b7f455243373231456e756d657261626c653a20636f6e736563757469766520747260008201527f616e7366657273206e6f7420737570706f727465640000000000000000000000602082015250565b60006137e2603583612477565b91506137ed82613786565b604082019050919050565b60006020820190508181036000830152613811816137d5565b9050919050565b600081519050919050565b600082825260208201905092915050565b600061383f82613818565b6138498185613823565b9350613859818560208601612488565b613862816124b2565b840191505092915050565b600060808201905061388260008301876125b3565b61388f60208301866125b3565b61389c6040830185612649565b81810360608301526138ae8184613834565b905095945050505050565b6000815190506138c8816123dd565b92915050565b6000602082840312156138e4576138e36123a7565b5b60006138f2848285016138b9565b91505092915050565b60006139068261251e565b91506139118361251e565b925082820390508181111561392957613928613284565b5b92915050565b7f4e487b7100000000000000000000000000000000000000000000000000000000600052603160045260246000fd5b7f4552433732313a206d696e7420746f20746865207a65726f2061646472657373600082015250565b6000613994602083612477565b915061399f8261395e565b602082019050919050565b600060208201905081810360008301526139c381613987565b9050919050565b7f4552433732313a20746f6b656e20616c7265616479206d696e74656400000000600082015250565b6000613a00601c83612477565b9150613a0b826139ca565b602082019050919050565b60006020820190508181036000830152613a2f816139f3565b905091905056fea26469706673582212206da11e2a22af5097f1e4193a1f0613c5186148270de1a225778385b76bcf787064736f6c63430008140033",
  "immutableReferences": {},
  "source": "// SPDX-License-Identifier: MIT\npragma solidity ^0.8.0;\n\nimport \"@openzeppelin/contracts/token/ERC721/extensions/ERC721Enumerable.sol\";\n\ncontract MyAudioNFT is ERC721Enumerable {\n    struct NFT {\n        uint256 id;\n        string metadataCID;\n        string audioCID;\n        address owner;\n    }\n\n    uint256 public nextTokenId = 1;\n    mapping(uint256 => NFT) private _nfts;\n\n    event Minted(address indexed to, uint256 indexed tokenId); //   \n\n    constructor() ERC721(\"MyAudioNFT\", \"AUDIO\") {}\n\n    function mintNFT(\n        string calldata metadataCID,\n        string calldata audioCID\n    ) external {\n        uint256 tokenId = nextTokenId;\n        nextTokenId++;\n\n        _safeMint(msg.sender, tokenId);\n        _nfts[tokenId] = NFT(tokenId, metadataCID, audioCID, msg.sender);\n\n        emit Minted(msg.sender, tokenId); //  emit \n    }\n\n    function getNFT(uint256 tokenId) external view returns (NFT memory) {\n        require(_exists(tokenId), \"ERC721: query for nonexistent token\");\n        return _nfts[tokenId];\n    }\n\n    function getNFTsByOwner(address owner) external view returns (NFT[] memory) {\n        uint256 count = balanceOf(owner);\n        NFT[] memory result = new NFT[](count);\n        for (uint256 i = 0; i < count; i++) {\n            uint256 tokenId = tokenOfOwnerByIndex(owner, i);\n            result[i] = _nfts[tokenId];\n        }\n        return result;\n    }\n\n    function tokenURI(uint256 tokenId) public view override returns (string memory) {\n        require(_exists(tokenId), \"ERC721: query for nonexistent token\");\n        return string(abi.encodePacked(\"ipfs://\", _nfts[tokenId].metadataCID));\n    }\n\n    function tokenAudioUrl(uint256 tokenId) external view returns (string memory) {\n        require(_exists(tokenId), \"ERC721: query for nonexistent token\");\n        return string(abi.encodePacked(\"ipfs://\", _nfts[tokenId].audioCID));\n    }\n}\n",
  "sourcePath": "/home/ubuntu/go/src/Voice_NFT_Trading/src/backend/node/NFT/truffle-project/contracts/MyAudioNFT.sol",
  "compiler": {
    "name": "solc",
    "version": "0.8.20+commit.a1b79de6.Emscripten.clang"
  },
  "schemaVersion": "3.4.16",
  "updatedAt": "2025-07-10T09:54:30.736Z",
  "networkType": "ethereum",
  "devdoc": {
    "events": {
      "Approval(address,address,uint256)": {
        "details": "Emitted when `owner` enables `approved` to manage the `tokenId` token."
      },
      "ApprovalForAll(address,address,bool)": {
        "details": "Emitted when `owner` enables or disables (`approved`) `operator` to manage all of its assets."
      },
      "Transfer(address,address,uint256)": {
        "details": "Emitted when `tokenId` token is transferred from `from` to `to`."
      }
    },
    "kind": "dev",
    "methods": {
      "approve(address,uint256)": {
        "details": "See {IERC721-approve}."
      },
      "balanceOf(address)": {
        "details": "See {IERC721-balanceOf}."
      },
      "getApproved(uint256)": {
        "details": "See {IERC721-getApproved}."
      },
      "isApprovedForAll(address,address)": {
        "details": "See {IERC721-isApprovedForAll}."
      },
      "name()": {
        "details": "See {IERC721Metadata-name}."
      },
      "ownerOf(uint256)": {
        "details": "See {IERC721-ownerOf}."
      },
      "safeTransferFrom(address,address,uint256)": {
        "details": "See {IERC721-safeTransferFrom}."
      },
      "safeTransferFrom(address,address,uint256,bytes)": {
        "details": "See {IERC721-safeTransferFrom}."
      },
      "setApprovalForAll(address,bool)": {
        "details": "See {IERC721-setApprovalForAll}."
      },
      "supportsInterface(bytes4)": {
        "details": "See {IERC165-supportsInterface}."
      },
      "symbol()": {
        "details": "See {IERC721Metadata-symbol}."
      },
      "tokenByIndex(uint256)": {
        "details": "See {IERC721Enumerable-tokenByIndex}."
      },
      "tokenOfOwnerByIndex(address,uint256)": {
        "details": "See {IERC721Enumerable-tokenOfOwnerByIndex}."
      },
      "tokenURI(uint256)": {
        "details": "See {IERC721Metadata-tokenURI}."
      },
      "totalSupply()": {
        "details": "See {IERC721Enumerable-totalSupply}."
      },
      "transferFrom(address,address,uint256)": {
        "details": "See {IERC721-transferFrom}."
      }
    },
    "version": 1
  },
  "userdoc": {
    "kind": "user",
    "methods": {},
    "version": 1
  }
}