{
  "contractName": "MyNFTs",
  "abi": [
    {
      "inputs": [],
      "stateMutability": "nonpayable",
      "type": "constructor"
    },
    {
      "anonymous": false,
      "inputs": [
        {
          "indexed": true,
          "internalType": "address",
          "name": "owner",
          "type": "address"
        },
        {
          "indexed": true,
          "internalType": "address",
          "name": "approved",
          "type": "address"
        },
        {
          "indexed": true,
          "internalType": "uint256",
          "name": "tokenId",
          "type": "uint256"
        }
      ],
      "name": "Approval",
      "type": "event"
    },
    {
      "anonymous": false,
      "inputs": [
        {
          "indexed": true,
          "internalType": "address",
          "name": "owner",
          "type": "address"
        },
        {
          "indexed": true,
          "internalType": "address",
          "name": "operator",
          "type": "address"
        },
        {
          "indexed": false,
          "internalType": "bool",
          "name": "approved",
          "type": "bool"
        }
      ],
      "name": "ApprovalForAll",
      "type": "event"
    },
    {
      "anonymous": false,
      "inputs": [
        {
          "indexed": false,
          "internalType": "uint256",
          "name": "_fromTokenId",
          "type": "uint256"
        },
        {
          "indexed": false,
          "internalType": "uint256",
          "name": "_toTokenId",
          "type": "uint256"
        }
      ],
      "name": "BatchMetadataUpdate",
      "type": "event"
    },
    {
      "anonymous": false,
      "inputs": [
        {
          "indexed": false,
          "internalType": "uint256",
          "name": "_tokenId",
          "type": "uint256"
        }
      ],
      "name": "MetadataUpdate",
      "type": "event"
    },
    {
      "anonymous": false,
      "inputs": [
        {
          "indexed": true,
          "internalType": "address",
          "name": "previousOwner",
          "type": "address"
        },
        {
          "indexed": true,
          "internalType": "address",
          "name": "newOwner",
          "type": "address"
        }
      ],
      "name": "OwnershipTransferred",
      "type": "event"
    },
    {
      "anonymous": false,
      "inputs": [
        {
          "indexed": true,
          "internalType": "address",
          "name": "from",
          "type": "address"
        },
        {
          "indexed": true,
          "internalType": "address",
          "name": "to",
          "type": "address"
        },
        {
          "indexed": true,
          "internalType": "uint256",
          "name": "tokenId",
          "type": "uint256"
        }
      ],
      "name": "Transfer",
      "type": "event"
    },
    {
      "inputs": [
        {
          "internalType": "address",
          "name": "to",
          "type": "address"
        },
        {
          "internalType": "uint256",
          "name": "tokenId",
          "type": "uint256"
        }
      ],
      "name": "approve",
      "outputs": [],
      "stateMutability": "nonpayable",
      "type": "function"
    },
    {
      "inputs": [
        {
          "internalType": "address",
          "name": "owner",
          "type": "address"
        }
      ],
      "name": "balanceOf",
      "outputs": [
        {
          "internalType": "uint256",
          "name": "",
          "type": "uint256"
        }
      ],
      "stateMutability": "view",
      "type": "function"
    },
    {
      "inputs": [
        {
          "internalType": "uint256",
          "name": "tokenId",
          "type": "uint256"
        }
      ],
      "name": "getApproved",
      "outputs": [
        {
          "internalType": "address",
          "name": "",
          "type": "address"
        }
      ],
      "stateMutability": "view",
      "type": "function"
    },
    {
      "inputs": [
        {
          "internalType": "address",
          "name": "owner",
          "type": "address"
        },
        {
          "internalType": "address",
          "name": "operator",
          "type": "address"
        }
      ],
      "name": "isApprovedForAll",
      "outputs": [
        {
          "internalType": "bool",
          "name": "",
          "type": "bool"
        }
      ],
      "stateMutability": "view",
      "type": "function"
    },
    {
      "inputs": [],
      "name": "name",
      "outputs": [
        {
          "internalType": "string",
          "name": "",
          "type": "string"
        }
      ],
      "stateMutability": "view",
      "type": "function"
    },
    {
      "inputs": [],
      "name": "owner",
      "outputs": [
        {
          "internalType": "address",
          "name": "",
          "type": "address"
        }
      ],
      "stateMutability": "view",
      "type": "function"
    },
    {
      "inputs": [
        {
          "internalType": "uint256",
          "name": "tokenId",
          "type": "uint256"
        }
      ],
      "name": "ownerOf",
      "outputs": [
        {
          "internalType": "address",
          "name": "",
          "type": "address"
        }
      ],
      "stateMutability": "view",
      "type": "function"
    },
    {
      "inputs": [],
      "name": "renounceOwnership",
      "outputs": [],
      "stateMutability": "nonpayable",
      "type": "function"
    },
    {
      "inputs": [
        {
          "internalType": "address",
          "name": "from",
          "type": "address"
        },
        {
          "internalType": "address",
          "name": "to",
          "type": "address"
        },
        {
          "internalType": "uint256",
          "name": "tokenId",
          "type": "uint256"
        }
      ],
      "name": "safeTransferFrom",
      "outputs": [],
      "stateMutability": "nonpayable",
      "type": "function"
    },
    {
      "inputs": [
        {
          "internalType": "address",
          "name": "from",
          "type": "address"
        },
        {
          "internalType": "address",
          "name": "to",
          "type": "address"
        },
        {
          "internalType": "uint256",
          "name": "tokenId",
          "type": "uint256"
        },
        {
          "internalType": "bytes",
          "name": "data",
          "type": "bytes"
        }
      ],
      "name": "safeTransferFrom",
      "outputs": [],
      "stateMutability": "nonpayable",
      "type": "function"
    },
    {
      "inputs": [
        {
          "internalType": "address",
          "name": "operator",
          "type": "address"
        },
        {
          "internalType": "bool",
          "name": "approved",
          "type": "bool"
        }
      ],
      "name": "setApprovalForAll",
      "outputs": [],
      "stateMutability": "nonpayable",
      "type": "function"
    },
    {
      "inputs": [
        {
          "internalType": "bytes4",
          "name": "interfaceId",
          "type": "bytes4"
        }
      ],
      "name": "supportsInterface",
      "outputs": [
        {
          "internalType": "bool",
          "name": "",
          "type": "bool"
        }
      ],
      "stateMutability": "view",
      "type": "function"
    },
    {
      "inputs": [],
      "name": "symbol",
      "outputs": [
        {
          "internalType": "string",
          "name": "",
          "type": "string"
        }
      ],
      "stateMutability": "view",
      "type": "function"
    },
    {
      "inputs": [
        {
          "internalType": "uint256",
          "name": "tokenId",
          "type": "uint256"
        }
      ],
      "name": "tokenURI",
      "outputs": [
        {
          "internalType": "string",
          "name": "",
          "type": "string"
        }
      ],
      "stateMutability": "view",
      "type": "function"
    },
    {
      "inputs": [
        {
          "internalType": "address",
          "name": "from",
          "type": "address"
        },
        {
          "internalType": "address",
          "name": "to",
          "type": "address"
        },
        {
          "internalType": "uint256",
          "name": "tokenId",
          "type": "uint256"
        }
      ],
      "name": "transferFrom",
      "outputs": [],
      "stateMutability": "nonpayable",
      "type": "function"
    },
    {
      "inputs": [
        {
          "internalType": "address",
          "name": "newOwner",
          "type": "address"
        }
      ],
      "name": "transferOwnership",
      "outputs": [],
      "stateMutability": "nonpayable",
      "type": "function"
    },
    {
      "inputs": [],
      "name": "mintNFT",
      "outputs": [
        {
          "internalType": "uint256",
          "name": "",
          "type": "uint256"
        }
      ],
      "stateMutability": "nonpayable",
      "type": "function"
    }
  ],
  "bytecode": "0x608060405234801561000f575f5ffd5b506040518060400160405280600681526020017f4d794e46547300000000000000000000000000000000000000000000000000008152506040518060400160405280600481526020017f4d4e465400000000000000000000000000000000000000000000000000000000815250815f908161008a91906103c5565b50806001908161009a91906103c5565b5050506100b96100ae6100be60201b60201c565b6100c560201b60201c565b610494565b5f33905090565b5f60075f9054906101000a900473ffffffffffffffffffffffffffffffffffffffff1690508160075f6101000a81548173ffffffffffffffffffffffffffffffffffffffff021916908373ffffffffffffffffffffffffffffffffffffffff1602179055508173ffffffffffffffffffffffffffffffffffffffff168173ffffffffffffffffffffffffffffffffffffffff167f8be0079c531659141344cd1fd0a4f28419497f9722a3daafe3b4186f6b6457e060405160405180910390a35050565b5f81519050919050565b7f4e487b71000000000000000000000000000000000000000000000000000000005f52604160045260245ffd5b7f4e487b71000000000000000000000000000000000000000000000000000000005f52602260045260245ffd5b5f600282049050600182168061020357607f821691505b602082108103610216576102156101bf565b5b50919050565b5f819050815f5260205f209050919050565b5f6020601f8301049050919050565b5f82821b905092915050565b5f600883026102787fffffffffffffffffffffffffffffffffffffffffffffffffffffffffffffffff8261023d565b610282868361023d565b95508019841693508086168417925050509392505050565b5f819050919050565b5f819050919050565b5f6102c66102c16102bc8461029a565b6102a3565b61029a565b9050919050565b5f819050919050565b6102df836102ac565b6102f36102eb826102cd565b848454610249565b825550505050565b5f5f905090565b61030a6102fb565b6103158184846102d6565b505050565b5b818110156103385761032d5f82610302565b60018101905061031b565b5050565b601f82111561037d5761034e8161021c565b6103578461022e565b81016020851015610366578190505b61037a6103728561022e565b83018261031a565b50505b505050565b5f82821c905092915050565b5f61039d5f1984600802610382565b1980831691505092915050565b5f6103b5838361038e565b9150826002028217905092915050565b6103ce82610188565b67ffffffffffffffff8111156103e7576103e6610192565b5b6103f182546101ec565b6103fc82828561033c565b5f60209050601f83116001811461042d575f841561041b578287015190505b61042585826103aa565b86555061048c565b601f19841661043b8661021c565b5f5b828110156104625784890151825560018201915060208501945060208101905061043d565b8683101561047f578489015161047b601f89168261038e565b8355505b6001600288020188555050505b505050505050565b612c8a806104a15f395ff3fe608060405234801561000f575f5ffd5b5060043610610109575f3560e01c806370a08231116100a0578063a22cb4651161006f578063a22cb465146102a3578063b88d4fde146102bf578063c87b56dd146102db578063e985e9c51461030b578063f2fde38b1461033b57610109565b806370a082311461022d578063715018a61461025d5780638da5cb5b1461026757806395d89b411461028557610109565b806314f710fe116100dc57806314f710fe146101a757806323b872dd146101c557806342842e0e146101e15780636352211e146101fd57610109565b806301ffc9a71461010d57806306fdde031461013d578063081812fc1461015b578063095ea7b31461018b575b5f5ffd5b61012760048036038101906101229190611bda565b610357565b6040516101349190611c1f565b60405180910390f35b6101456103b7565b6040516101529190611ca8565b60405180910390f35b61017560048036038101906101709190611cfb565b610446565b6040516101829190611d65565b60405180910390f35b6101a560048036038101906101a09190611da8565b610488565b005b6101af61059e565b6040516101bc9190611df5565b60405180910390f35b6101df60048036038101906101da9190611e0e565b6105f6565b005b6101fb60048036038101906101f69190611e0e565b610656565b005b61021760048036038101906102129190611cfb565b610675565b6040516102249190611d65565b60405180910390f35b61024760048036038101906102429190611e5e565b6106f9565b6040516102549190611df5565b60405180910390f35b6102656107ad565b005b61026f6107c0565b60405161027c9190611d65565b60405180910390f35b61028d6107e8565b60405161029a9190611ca8565b60405180910390f35b6102bd60048036038101906102b89190611eb3565b610878565b005b6102d960048036038101906102d4919061201d565b61088e565b005b6102f560048036038101906102f09190611cfb565b6108f0565b6040516103029190611ca8565b60405180910390f35b6103256004803603810190610320919061209d565b6109fa565b6040516103329190611c1f565b60405180910390f35b61035560048036038101906103509190611e5e565b610a88565b005b5f634906490660e01b7bffffffffffffffffffffffffffffffffffffffffffffffffffffffff1916827bffffffffffffffffffffffffffffffffffffffffffffffffffffffff191614806103b057506103af82610b0a565b5b9050919050565b60605f80546103c590612108565b80601f01602080910402602001604051908101604052809291908181526020018280546103f190612108565b801561043c5780601f106104135761010080835404028352916020019161043c565b820191905f5260205f20905b81548152906001019060200180831161041f57829003601f168201915b5050505050905090565b5f61045082610beb565b60045f8381526020019081526020015f205f9054906101000a900473ffffffffffffffffffffffffffffffffffffffff169050919050565b5f61049282610675565b90508073ffffffffffffffffffffffffffffffffffffffff168373ffffffffffffffffffffffffffffffffffffffff1603610502576040517f08c379a00000000000000000000000000000000000000000000000000000000081526004016104f9906121a8565b60405180910390fd5b8073ffffffffffffffffffffffffffffffffffffffff16610521610c36565b73ffffffffffffffffffffffffffffffffffffffff161480610550575061054f8161054a610c36565b6109fa565b5b61058f576040517f08c379a000000000000000000000000000000000000000000000000000000000815260040161058690612236565b60405180910390fd5b6105998383610c3d565b505050565b5f6105a7610cf3565b6105b16008610d71565b5f6105bc6008610d85565b90505f604051806080016040528060428152602001612c136042913990506105e43383610d91565b6105ee8282610fa4565b819250505090565b610607610601610c36565b82611046565b610646576040517f08c379a000000000000000000000000000000000000000000000000000000000815260040161063d906122c4565b60405180910390fd5b6106518383836110da565b505050565b61067083838360405180602001604052805f81525061088e565b505050565b5f5f610680836113c6565b90505f73ffffffffffffffffffffffffffffffffffffffff168173ffffffffffffffffffffffffffffffffffffffff16036106f0576040517f08c379a00000000000000000000000000000000000000000000000000000000081526004016106e79061232c565b60405180910390fd5b80915050919050565b5f5f73ffffffffffffffffffffffffffffffffffffffff168273ffffffffffffffffffffffffffffffffffffffff1603610768576040517f08c379a000000000000000000000000000000000000000000000000000000000815260040161075f906123ba565b60405180910390fd5b60035f8373ffffffffffffffffffffffffffffffffffffffff1673ffffffffffffffffffffffffffffffffffffffff1681526020019081526020015f20549050919050565b6107b5610cf3565b6107be5f6113ff565b565b5f60075f9054906101000a900473ffffffffffffffffffffffffffffffffffffffff16905090565b6060600180546107f790612108565b80601f016020809104026020016040519081016040528092919081815260200182805461082390612108565b801561086e5780601f106108455761010080835404028352916020019161086e565b820191905f5260205f20905b81548152906001019060200180831161085157829003601f168201915b5050505050905090565b61088a610883610c36565b83836114c2565b5050565b61089f610899610c36565b83611046565b6108de576040517f08c379a00000000000000000000000000000000000000000000000000000000081526004016108d5906122c4565b60405180910390fd5b6108ea84848484611629565b50505050565b60606108fb82610beb565b5f60065f8481526020019081526020015f20805461091890612108565b80601f016020809104026020016040519081016040528092919081815260200182805461094490612108565b801561098f5780601f106109665761010080835404028352916020019161098f565b820191905f5260205f20905b81548152906001019060200180831161097257829003601f168201915b505050505090505f61099f611685565b90505f8151036109b35781925050506109f5565b5f825111156109e75780826040516020016109cf929190612412565b604051602081830303815290604052925050506109f5565b6109f08461169b565b925050505b919050565b5f60055f8473ffffffffffffffffffffffffffffffffffffffff1673ffffffffffffffffffffffffffffffffffffffff1681526020019081526020015f205f8373ffffffffffffffffffffffffffffffffffffffff1673ffffffffffffffffffffffffffffffffffffffff1681526020019081526020015f205f9054906101000a900460ff16905092915050565b610a90610cf3565b5f73ffffffffffffffffffffffffffffffffffffffff168173ffffffffffffffffffffffffffffffffffffffff1603610afe576040517f08c379a0000000000000000000000000000000000000000000000000000000008152600401610af5906124a5565b60405180910390fd5b610b07816113ff565b50565b5f7f80ac58cd000000000000000000000000000000000000000000000000000000007bffffffffffffffffffffffffffffffffffffffffffffffffffffffff1916827bffffffffffffffffffffffffffffffffffffffffffffffffffffffff19161480610bd457507f5b5e139f000000000000000000000000000000000000000000000000000000007bffffffffffffffffffffffffffffffffffffffffffffffffffffffff1916827bffffffffffffffffffffffffffffffffffffffffffffffffffffffff1916145b80610be45750610be382611700565b5b9050919050565b610bf481611769565b610c33576040517f08c379a0000000000000000000000000000000000000000000000000000000008152600401610c2a9061232c565b60405180910390fd5b50565b5f33905090565b8160045f8381526020019081526020015f205f6101000a81548173ffffffffffffffffffffffffffffffffffffffff021916908373ffffffffffffffffffffffffffffffffffffffff160217905550808273ffffffffffffffffffffffffffffffffffffffff16610cad83610675565b73ffffffffffffffffffffffffffffffffffffffff167f8c5be1e5ebec7d5bd14f71427d1e84f3dd0314c0f7b2291e5b200ac8c7c3b92560405160405180910390a45050565b610cfb610c36565b73ffffffffffffffffffffffffffffffffffffffff16610d196107c0565b73ffffffffffffffffffffffffffffffffffffffff1614610d6f576040517f08c379a0000000000000000000000000000000000000000000000000000000008152600401610d669061250d565b60405180910390fd5b565b6001815f015f828254019250508190555050565b5f815f01549050919050565b5f73ffffffffffffffffffffffffffffffffffffffff168273ffffffffffffffffffffffffffffffffffffffff1603610dff576040517f08c379a0000000000000000000000000000000000000000000000000000000008152600401610df690612575565b60405180910390fd5b610e0881611769565b15610e48576040517f08c379a0000000000000000000000000000000000000000000000000000000008152600401610e3f906125dd565b60405180910390fd5b610e555f838360016117a9565b610e5e81611769565b15610e9e576040517f08c379a0000000000000000000000000000000000000000000000000000000008152600401610e95906125dd565b60405180910390fd5b600160035f8473ffffffffffffffffffffffffffffffffffffffff1673ffffffffffffffffffffffffffffffffffffffff1681526020019081526020015f205f82825401925050819055508160025f8381526020019081526020015f205f6101000a81548173ffffffffffffffffffffffffffffffffffffffff021916908373ffffffffffffffffffffffffffffffffffffffff160217905550808273ffffffffffffffffffffffffffffffffffffffff165f73ffffffffffffffffffffffffffffffffffffffff167fddf252ad1be2c89b69c2b068fc378daa952ba7f163c4a11628f55a4df523b3ef60405160405180910390a4610fa05f838360016117af565b5050565b610fad82611769565b610fec576040517f08c379a0000000000000000000000000000000000000000000000000000000008152600401610fe39061266b565b60405180910390fd5b8060065f8481526020019081526020015f20908161100a9190612829565b507ff8e1a15aba9398e019f0b49df1a4fde98ee17ae345cb5f6b5e2c27f5033e8ce78260405161103a9190611df5565b60405180910390a15050565b5f5f61105183610675565b90508073ffffffffffffffffffffffffffffffffffffffff168473ffffffffffffffffffffffffffffffffffffffff161480611093575061109281856109fa565b5b806110d157508373ffffffffffffffffffffffffffffffffffffffff166110b984610446565b73ffffffffffffffffffffffffffffffffffffffff16145b91505092915050565b8273ffffffffffffffffffffffffffffffffffffffff166110fa82610675565b73ffffffffffffffffffffffffffffffffffffffff1614611150576040517f08c379a000000000000000000000000000000000000000000000000000000000815260040161114790612968565b60405180910390fd5b5f73ffffffffffffffffffffffffffffffffffffffff168273ffffffffffffffffffffffffffffffffffffffff16036111be576040517f08c379a00000000000000000000000000000000000000000000000000000000081526004016111b5906129f6565b60405180910390fd5b6111cb83838360016117a9565b8273ffffffffffffffffffffffffffffffffffffffff166111eb82610675565b73ffffffffffffffffffffffffffffffffffffffff1614611241576040517f08c379a000000000000000000000000000000000000000000000000000000000815260040161123890612968565b60405180910390fd5b60045f8281526020019081526020015f205f6101000a81549073ffffffffffffffffffffffffffffffffffffffff0219169055600160035f8573ffffffffffffffffffffffffffffffffffffffff1673ffffffffffffffffffffffffffffffffffffffff1681526020019081526020015f205f8282540392505081905550600160035f8473ffffffffffffffffffffffffffffffffffffffff1673ffffffffffffffffffffffffffffffffffffffff1681526020019081526020015f205f82825401925050819055508160025f8381526020019081526020015f205f6101000a81548173ffffffffffffffffffffffffffffffffffffffff021916908373ffffffffffffffffffffffffffffffffffffffff160217905550808273ffffffffffffffffffffffffffffffffffffffff168473ffffffffffffffffffffffffffffffffffffffff167fddf252ad1be2c89b69c2b068fc378daa952ba7f163c4a11628f55a4df523b3ef60405160405180910390a46113c183838360016117af565b505050565b5f60025f8381526020019081526020015f205f9054906101000a900473ffffffffffffffffffffffffffffffffffffffff169050919050565b5f60075f9054906101000a900473ffffffffffffffffffffffffffffffffffffffff1690508160075f6101000a81548173ffffffffffffffffffffffffffffffffffffffff021916908373ffffffffffffffffffffffffffffffffffffffff1602179055508173ffffffffffffffffffffffffffffffffffffffff168173ffffffffffffffffffffffffffffffffffffffff167f8be0079c531659141344cd1fd0a4f28419497f9722a3daafe3b4186f6b6457e060405160405180910390a35050565b8173ffffffffffffffffffffffffffffffffffffffff168373ffffffffffffffffffffffffffffffffffffffff1603611530576040517f08c379a000000000000000000000000000000000000000000000000000000000815260040161152790612a5e565b60405180910390fd5b8060055f8573ffffffffffffffffffffffffffffffffffffffff1673ffffffffffffffffffffffffffffffffffffffff1681526020019081526020015f205f8473ffffffffffffffffffffffffffffffffffffffff1673ffffffffffffffffffffffffffffffffffffffff1681526020019081526020015f205f6101000a81548160ff0219169083151502179055508173ffffffffffffffffffffffffffffffffffffffff168373ffffffffffffffffffffffffffffffffffffffff167f17307eab39ab6107e8899845ad3d59bd9653f200f220920489ca2b5937696c318360405161161c9190611c1f565b60405180910390a3505050565b6116348484846110da565b611640848484846117b5565b61167f576040517f08c379a000000000000000000000000000000000000000000000000000000000815260040161167690612aec565b60405180910390fd5b50505050565b606060405180602001604052805f815250905090565b60606116a682610beb565b5f6116af611685565b90505f8151116116cd5760405180602001604052805f8152506116f8565b806116d784611937565b6040516020016116e8929190612412565b6040516020818303038152906040525b915050919050565b5f7f01ffc9a7000000000000000000000000000000000000000000000000000000007bffffffffffffffffffffffffffffffffffffffffffffffffffffffff1916827bffffffffffffffffffffffffffffffffffffffffffffffffffffffff1916149050919050565b5f5f73ffffffffffffffffffffffffffffffffffffffff1661178a836113c6565b73ffffffffffffffffffffffffffffffffffffffff1614159050919050565b50505050565b50505050565b5f6117d58473ffffffffffffffffffffffffffffffffffffffff16611a01565b1561192a578373ffffffffffffffffffffffffffffffffffffffff1663150b7a026117fe610c36565b8786866040518563ffffffff1660e01b81526004016118209493929190612b5c565b6020604051808303815f875af192505050801561185b57506040513d601f19601f820116820180604052508101906118589190612bba565b60015b6118da573d805f8114611889576040519150601f19603f3d011682016040523d82523d5f602084013e61188e565b606091505b505f8151036118d2576040517f08c379a00000000000000000000000000000000000000000000000000000000081526004016118c990612aec565b60405180910390fd5b805181602001fd5b63150b7a0260e01b7bffffffffffffffffffffffffffffffffffffffffffffffffffffffff1916817bffffffffffffffffffffffffffffffffffffffffffffffffffffffff19161491505061192f565b600190505b949350505050565b60605f600161194584611a23565b0190505f8167ffffffffffffffff81111561196357611962611ef9565b5b6040519080825280601f01601f1916602001820160405280156119955781602001600182028036833780820191505090505b5090505f82602001820190505b6001156119f6578080600190039150507f3031323334353637383961626364656600000000000000000000000000000000600a86061a8153600a85816119eb576119ea612be5565b5b0494505f85036119a2575b819350505050919050565b5f5f8273ffffffffffffffffffffffffffffffffffffffff163b119050919050565b5f5f5f90507a184f03e93ff9f4daa797ed6e38ed64bf6a1f0100000000000000008310611a7f577a184f03e93ff9f4daa797ed6e38ed64bf6a1f0100000000000000008381611a7557611a74612be5565b5b0492506040810190505b6d04ee2d6d415b85acef81000000008310611abc576d04ee2d6d415b85acef81000000008381611ab257611ab1612be5565b5b0492506020810190505b662386f26fc100008310611aeb57662386f26fc100008381611ae157611ae0612be5565b5b0492506010810190505b6305f5e1008310611b14576305f5e1008381611b0a57611b09612be5565b5b0492506008810190505b6127108310611b39576127108381611b2f57611b2e612be5565b5b0492506004810190505b60648310611b5c5760648381611b5257611b51612be5565b5b0492506002810190505b600a8310611b6b576001810190505b80915050919050565b5f604051905090565b5f5ffd5b5f5ffd5b5f7fffffffff0000000000000000000000000000000000000000000000000000000082169050919050565b611bb981611b85565b8114611bc3575f5ffd5b50565b5f81359050611bd481611bb0565b92915050565b5f60208284031215611bef57611bee611b7d565b5b5f611bfc84828501611bc6565b91505092915050565b5f8115159050919050565b611c1981611c05565b82525050565b5f602082019050611c325f830184611c10565b92915050565b5f81519050919050565b5f82825260208201905092915050565b8281835e5f83830152505050565b5f601f19601f8301169050919050565b5f611c7a82611c38565b611c848185611c42565b9350611c94818560208601611c52565b611c9d81611c60565b840191505092915050565b5f6020820190508181035f830152611cc08184611c70565b905092915050565b5f819050919050565b611cda81611cc8565b8114611ce4575f5ffd5b50565b5f81359050611cf581611cd1565b92915050565b5f60208284031215611d1057611d0f611b7d565b5b5f611d1d84828501611ce7565b91505092915050565b5f73ffffffffffffffffffffffffffffffffffffffff82169050919050565b5f611d4f82611d26565b9050919050565b611d5f81611d45565b82525050565b5f602082019050611d785f830184611d56565b92915050565b611d8781611d45565b8114611d91575f5ffd5b50565b5f81359050611da281611d7e565b92915050565b5f5f60408385031215611dbe57611dbd611b7d565b5b5f611dcb85828601611d94565b9250506020611ddc85828601611ce7565b9150509250929050565b611def81611cc8565b82525050565b5f602082019050611e085f830184611de6565b92915050565b5f5f5f60608486031215611e2557611e24611b7d565b5b5f611e3286828701611d94565b9350506020611e4386828701611d94565b9250506040611e5486828701611ce7565b9150509250925092565b5f60208284031215611e7357611e72611b7d565b5b5f611e8084828501611d94565b91505092915050565b611e9281611c05565b8114611e9c575f5ffd5b50565b5f81359050611ead81611e89565b92915050565b5f5f60408385031215611ec957611ec8611b7d565b5b5f611ed685828601611d94565b9250506020611ee785828601611e9f565b9150509250929050565b5f5ffd5b5f5ffd5b7f4e487b71000000000000000000000000000000000000000000000000000000005f52604160045260245ffd5b611f2f82611c60565b810181811067ffffffffffffffff82111715611f4e57611f4d611ef9565b5b80604052505050565b5f611f60611b74565b9050611f6c8282611f26565b919050565b5f67ffffffffffffffff821115611f8b57611f8a611ef9565b5b611f9482611c60565b9050602081019050919050565b828183375f83830152505050565b5f611fc1611fbc84611f71565b611f57565b905082815260208101848484011115611fdd57611fdc611ef5565b5b611fe8848285611fa1565b509392505050565b5f82601f83011261200457612003611ef1565b5b8135612014848260208601611faf565b91505092915050565b5f5f5f5f6080858703121561203557612034611b7d565b5b5f61204287828801611d94565b945050602061205387828801611d94565b935050604061206487828801611ce7565b925050606085013567ffffffffffffffff81111561208557612084611b81565b5b61209187828801611ff0565b91505092959194509250565b5f5f604083850312156120b3576120b2611b7d565b5b5f6120c085828601611d94565b92505060206120d185828601611d94565b9150509250929050565b7f4e487b71000000000000000000000000000000000000000000000000000000005f52602260045260245ffd5b5f600282049050600182168061211f57607f821691505b602082108103612132576121316120db565b5b50919050565b7f4552433732313a20617070726f76616c20746f2063757272656e74206f776e655f8201527f7200000000000000000000000000000000000000000000000000000000000000602082015250565b5f612192602183611c42565b915061219d82612138565b604082019050919050565b5f6020820190508181035f8301526121bf81612186565b9050919050565b7f4552433732313a20617070726f76652063616c6c6572206973206e6f7420746f5f8201527f6b656e206f776e6572206f7220617070726f76656420666f7220616c6c000000602082015250565b5f612220603d83611c42565b915061222b826121c6565b604082019050919050565b5f6020820190508181035f83015261224d81612214565b9050919050565b7f4552433732313a2063616c6c6572206973206e6f7420746f6b656e206f776e655f8201527f72206f7220617070726f76656400000000000000000000000000000000000000602082015250565b5f6122ae602d83611c42565b91506122b982612254565b604082019050919050565b5f6020820190508181035f8301526122db816122a2565b9050919050565b7f4552433732313a20696e76616c696420746f6b656e20494400000000000000005f82015250565b5f612316601883611c42565b9150612321826122e2565b602082019050919050565b5f6020820190508181035f8301526123438161230a565b9050919050565b7f4552433732313a2061646472657373207a65726f206973206e6f7420612076615f8201527f6c6964206f776e65720000000000000000000000000000000000000000000000602082015250565b5f6123a4602983611c42565b91506123af8261234a565b604082019050919050565b5f6020820190508181035f8301526123d181612398565b9050919050565b5f81905092915050565b5f6123ec82611c38565b6123f681856123d8565b9350612406818560208601611c52565b80840191505092915050565b5f61241d82856123e2565b915061242982846123e2565b91508190509392505050565b7f4f776e61626c653a206e6577206f776e657220697320746865207a65726f20615f8201527f6464726573730000000000000000000000000000000000000000000000000000602082015250565b5f61248f602683611c42565b915061249a82612435565b604082019050919050565b5f6020820190508181035f8301526124bc81612483565b9050919050565b7f4f776e61626c653a2063616c6c6572206973206e6f7420746865206f776e65725f82015250565b5f6124f7602083611c42565b9150612502826124c3565b602082019050919050565b5f6020820190508181035f830152612524816124eb565b9050919050565b7f4552433732313a206d696e7420746f20746865207a65726f20616464726573735f82015250565b5f61255f602083611c42565b915061256a8261252b565b602082019050919050565b5f6020820190508181035f83015261258c81612553565b9050919050565b7f4552433732313a20746f6b656e20616c7265616479206d696e746564000000005f82015250565b5f6125c7601c83611c42565b91506125d282612593565b602082019050919050565b5f6020820190508181035f8301526125f4816125bb565b9050919050565b7f45524337323155524953746f726167653a2055524920736574206f66206e6f6e5f8201527f6578697374656e7420746f6b656e000000000000000000000000000000000000602082015250565b5f612655602e83611c42565b9150612660826125fb565b604082019050919050565b5f6020820190508181035f83015261268281612649565b9050919050565b5f819050815f5260205f209050919050565b5f6020601f8301049050919050565b5f82821b905092915050565b5f600883026126e57fffffffffffffffffffffffffffffffffffffffffffffffffffffffffffffffff826126aa565b6126ef86836126aa565b95508019841693508086168417925050509392505050565b5f819050919050565b5f61272a61272561272084611cc8565b612707565b611cc8565b9050919050565b5f819050919050565b61274383612710565b61275761274f82612731565b8484546126b6565b825550505050565b5f5f905090565b61276e61275f565b61277981848461273a565b505050565b5b8181101561279c576127915f82612766565b60018101905061277f565b5050565b601f8211156127e1576127b281612689565b6127bb8461269b565b810160208510156127ca578190505b6127de6127d68561269b565b83018261277e565b50505b505050565b5f82821c905092915050565b5f6128015f19846008026127e6565b1980831691505092915050565b5f61281983836127f2565b9150826002028217905092915050565b61283282611c38565b67ffffffffffffffff81111561284b5761284a611ef9565b5b6128558254612108565b6128608282856127a0565b5f60209050601f831160018114612891575f841561287f578287015190505b612889858261280e565b8655506128f0565b601f19841661289f86612689565b5f5b828110156128c6578489015182556001820191506020850194506020810190506128a1565b868310156128e357848901516128df601f8916826127f2565b8355505b6001600288020188555050505b505050505050565b7f4552433732313a207472616e736665722066726f6d20696e636f7272656374205f8201527f6f776e6572000000000000000000000000000000000000000000000000000000602082015250565b5f612952602583611c42565b915061295d826128f8565b604082019050919050565b5f6020820190508181035f83015261297f81612946565b9050919050565b7f4552433732313a207472616e7366657220746f20746865207a65726f206164645f8201527f7265737300000000000000000000000000000000000000000000000000000000602082015250565b5f6129e0602483611c42565b91506129eb82612986565b604082019050919050565b5f6020820190508181035f830152612a0d816129d4565b9050919050565b7f4552433732313a20617070726f766520746f2063616c6c6572000000000000005f82015250565b5f612a48601983611c42565b9150612a5382612a14565b602082019050919050565b5f6020820190508181035f830152612a7581612a3c565b9050919050565b7f4552433732313a207472616e7366657220746f206e6f6e2045524337323152655f8201527f63656976657220696d706c656d656e7465720000000000000000000000000000602082015250565b5f612ad6603283611c42565b9150612ae182612a7c565b604082019050919050565b5f6020820190508181035f830152612b0381612aca565b9050919050565b5f81519050919050565b5f82825260208201905092915050565b5f612b2e82612b0a565b612b388185612b14565b9350612b48818560208601611c52565b612b5181611c60565b840191505092915050565b5f608082019050612b6f5f830187611d56565b612b7c6020830186611d56565b612b896040830185611de6565b8181036060830152612b9b8184612b24565b905095945050505050565b5f81519050612bb481611bb0565b92915050565b5f60208284031215612bcf57612bce611b7d565b5b5f612bdc84828501612ba6565b91505092915050565b7f4e487b71000000000000000000000000000000000000000000000000000000005f52601260045260245ffdfe697066733a2f2f62616679626569626362666f36336e6c3674773766363337686262726f37756d6362726e78667a376c6b62727033787833346f7765626d6a793265a2646970667358221220f71f3c908f7804abfc943d5cb8ccda75d0908dec60f90bda2c5520a808b27c1a64736f6c634300081e0033",
  "immutableReferences": {},
  "source": "// SPDX-License-Identifier: MIT\npragma solidity ^0.8.20;\n\nimport \"@openzeppelin/contracts/token/ERC721/ERC721.sol\";\nimport \"@openzeppelin/contracts/utils/Counters.sol\";\nimport \"@openzeppelin/contracts/access/Ownable.sol\";\nimport \"@openzeppelin/contracts/token/ERC721/extensions/ERC721URIStorage.sol\";\n\ncontract MyNFTs is ERC721URIStorage, Ownable {\n    using Counters for Counters.Counter;\n    Counters.Counter private _tokenIds;\n\n    constructor() ERC721(\"MyNFTs\", \"MNFT\") {}\n\n    function mintNFT() public onlyOwner returns (uint256) {\n        _tokenIds.increment();\n\n        uint256 newItemId = _tokenIds.current();\n        // IPFS  URI \n        string memory tokenURI = \"ipfs://bafybeibcbfo63nl6tw7f637hbbro7umcbrnxfz7lkbrp3xx34owebmjy2e\"; // IPFS CID  URI\n        _mint(msg.sender, newItemId);\n        _setTokenURI(newItemId, tokenURI);\n\n        return newItemId;\n    }\n}\n",
  "sourcePath": "/home/ubuntu/go/src/nft/contracts/MyNFT.sol",
  "compiler": {
    "name": "solc",
    "version": "0.8.30+commit.73712a01.Emscripten.clang"
  },
  "schemaVersion": "3.4.16",
  "updatedAt": "2025-07-03T04:51:26.363Z",
  "devdoc": {
    "events": {
      "Approval(address,address,uint256)": {
        "details": "Emitted when `owner` enables `approved` to manage the `tokenId` token."
      },
      "ApprovalForAll(address,address,bool)": {
        "details": "Emitted when `owner` enables or disables (`approved`) `operator` to manage all of its assets."
      },
      "BatchMetadataUpdate(uint256,uint256)": {
        "details": "This event emits when the metadata of a range of tokens is changed. So that the third-party platforms such as NFT market could timely update the images and related attributes of the NFTs."
      },
      "MetadataUpdate(uint256)": {
        "details": "This event emits when the metadata of a token is changed. So that the third-party platforms such as NFT market could timely update the images and related attributes of the NFT."
      },
      "Transfer(address,address,uint256)": {
        "details": "Emitted when `tokenId` token is transferred from `from` to `to`."
      }
    },
    "kind": "dev",
    "methods": {
      "approve(address,uint256)": {
        "details": "See {IERC721-approve}."
      },
      "balanceOf(address)": {
        "details": "See {IERC721-balanceOf}."
      },
      "getApproved(uint256)": {
        "details": "See {IERC721-getApproved}."
      },
      "isApprovedForAll(address,address)": {
        "details": "See {IERC721-isApprovedForAll}."
      },
      "name()": {
        "details": "See {IERC721Metadata-name}."
      },
      "owner()": {
        "details": "Returns the address of the current owner."
      },
      "ownerOf(uint256)": {
        "details": "See {IERC721-ownerOf}."
      },
      "renounceOwnership()": {
        "details": "Leaves the contract without owner. It will not be possible to call `onlyOwner` functions. Can only be called by the current owner. NOTE: Renouncing ownership will leave the contract without an owner, thereby disabling any functionality that is only available to the owner."
      },
      "safeTransferFrom(address,address,uint256)": {
        "details": "See {IERC721-safeTransferFrom}."
      },
      "safeTransferFrom(address,address,uint256,bytes)": {
        "details": "See {IERC721-safeTransferFrom}."
      },
      "setApprovalForAll(address,bool)": {
        "details": "See {IERC721-setApprovalForAll}."
      },
      "supportsInterface(bytes4)": {
        "details": "See {IERC165-supportsInterface}"
      },
      "symbol()": {
        "details": "See {IERC721Metadata-symbol}."
      },
      "tokenURI(uint256)": {
        "details": "See {IERC721Metadata-tokenURI}."
      },
      "transferFrom(address,address,uint256)": {
        "details": "See {IERC721-transferFrom}."
      },
      "transferOwnership(address)": {
        "details": "Transfers ownership of the contract to a new account (`newOwner`). Can only be called by the current owner."
      }
    },
    "version": 1
  },
  "userdoc": {
    "kind": "user",
    "methods": {},
    "version": 1
  }
}